:020000040000fa
:080000000002040000000000f2
:020000040000fa
:04000800d003000021
:020000040000fa
:04000c00d00300001d
:020000040000fa
:04001000d003000019
:020000040000fa
:04001400d003000015
:020000040000fa
:04001800d003000011
:020000040000fa
:04001c00d00300000d
:020000040000fa
:04002000d003000009
:020000040000fa
:04002400d003000005
:020000040000fa
:04002800d003000001
:020000040000fa
:04002c00c802000006
:020000040000fa
:04003000d0030000f9
:020000040000fa
:04003400d0030000f5
:020000040000fa
:04003800d0030000f1
:020000040000fa
:04003c003403000089
:020000040000fa
:04004000d0030000e9
:020000040000fa
:04004400d0030000e5
:020000040000fa
:04004800d0030000e1
:020000040000fa
:04004c00d0030000dd
:020000040000fa
:04005000d0030000d9
:020000040000fa
:04005400d0030000d5
:020000040000fa
:04005800d0030000d1
:020000040000fa
:04005c00d0030000cd
:020000040000fa
:04006000d0030000c9
:020000040000fa
:04006400d0030000c5
:020000040000fa
:04006800d0030000c1
:020000040000fa
:04006c00d0030000bd
:020000040000fa
:04007000d0030000b9
:020000040000fa
:04007400d0030000b5
:020000040000fa
:04007800d0030000b1
:020000040000fa
:04007c00d0030000ad
:020000040000fa
:04008000d0030000a9
:020000040000fa
:04008400d0030000a5
:020000040000fa
:04008800d0030000a1
:020000040000fa
:04008c00d00300009d
:020000040000fa
:04009000d003000099
:020000040000fa
:04009400d003000095
:020000040000fa
:04009800d003000091
:020000040000fa
:04009c00d00300008d
:020000040000fa
:0400a000d003000089
:020000040000fa
:0400a400d003000085
:020000040000fa
:0400a800d003000081
:020000040000fa
:0400ac00d00300007d
:020000040000fa
:0400b000d003000079
:020000040000fa
:0400b400d003000075
:020000040000fa
:0400b800d003000071
:020000040000fa
:0400bc00d00300006d
:020000040000fa
:0400c000d003000069
:020000040000fa
:0400c400d003000065
:020000040000fa
:0400c800d003000061
:020000040000fa
:0400cc00d00300005d
:020000040000fa
:0400d000d003000059
:020000040000fa
:0400d400d003000055
:020000040000fa
:0400d800d003000051
:020000040000fa
:0400dc00d00300004d
:020000040000fa
:0400e000d003000049
:020000040000fa
:0400e400d003000045
:020000040000fa
:0400e800d003000041
:020000040000fa
:0400ec00d00300003d
:020000040000fa
:0400f000d003000039
:020000040000fa
:0400f400d003000035
:020000040000fa
:0400f800d003000031
:020000040000fa
:0400fc00d00300002d
:020000040000fa
:04010000d003000028
:020000040000fa
:04010400d003000024
:020000040000fa
:04010800d003000020
:020000040000fa
:04010c00d00300001c
:020000040000fa
:04011000d003000018
:020000040000fa
:04011400d003000014
:020000040000fa
:04011800d003000010
:020000040000fa
:04011c00d00300000c
:020000040000fa
:04012000d003000008
:020000040000fa
:04012400d003000004
:020000040000fa
:04012800d003000000
:020000040000fa
:04012c00d0030000fc
:020000040000fa
:04013000d0030000f8
:020000040000fa
:04013400d0030000f4
:020000040000fa
:04013800d0030000f0
:020000040000fa
:04013c00d0030000ec
:020000040000fa
:04014000d0030000e8
:020000040000fa
:04014400d0030000e4
:020000040000fa
:04014800d0030000e0
:020000040000fa
:04020800d00300001f
:020000040000fa
:04020c00d00300001b
:020000040000fa
:04021000d003000017
:020000040000fa
:04021400d003000013
:020000040000fa
:04021800d00300000f
:020000040000fa
:04021c00d00300000b
:020000040000fa
:04022000d003000007
:020000040000fa
:04022400d003000003
:020000040000fa
:04022800d0030000ff
:020000040000fa
:04022c00c802000004
:020000040000fa
:04023000d0030000f7
:020000040000fa
:04023400d0030000f3
:020000040000fa
:04023800d0030000ef
:020000040000fa
:04023c003403000087
:020000040000fa
:04024000d0030000e7
:020000040000fa
:04024400d0030000e3
:020000040000fa
:04024800d0030000df
:020000040000fa
:04024c00d0030000db
:020000040000fa
:04025000d0030000d7
:020000040000fa
:04025400d0030000d3
:020000040000fa
:04025800d0030000cf
:020000040000fa
:04025c00d0030000cb
:020000040000fa
:04026000d0030000c7
:020000040000fa
:04026400d0030000c3
:020000040000fa
:04026800d0030000bf
:020000040000fa
:04026c00d0030000bb
:020000040000fa
:04027000d0030000b7
:020000040000fa
:04027400d0030000b3
:020000040000fa
:04027800d0030000af
:020000040000fa
:04027c00d0030000ab
:020000040000fa
:04028000d0030000a7
:020000040000fa
:04028400d0030000a3
:020000040000fa
:04028800d00300009f
:020000040000fa
:04028c00d00300009b
:020000040000fa
:04029000d003000097
:020000040000fa
:04029400d003000093
:020000040000fa
:04029800d00300008f
:020000040000fa
:04029c00d00300008b
:020000040000fa
:0402a000d003000087
:020000040000fa
:0402a400d003000083
:020000040000fa
:0402a800d00300007f
:020000040000fa
:0402ac00d00300007b
:020000040000fa
:0402b000d003000077
:020000040000fa
:0402b400d003000073
:020000040000fa
:0402b800d00300006f
:020000040000fa
:0402bc00d00300006b
:020000040000fa
:0402c000d003000067
:020000040000fa
:0402c400d003000063
:020000040000fa
:0402c800d00300005f
:020000040000fa
:0402cc00d00300005b
:020000040000fa
:0402d000d003000057
:020000040000fa
:0402d400d003000053
:020000040000fa
:0402d800d00300004f
:020000040000fa
:0402dc00d00300004b
:020000040000fa
:0402e000d003000047
:020000040000fa
:0402e400d003000043
:020000040000fa
:0402e800d00300003f
:020000040000fa
:0402ec00d00300003b
:020000040000fa
:0402f000d003000037
:020000040000fa
:0402f400d003000033
:020000040000fa
:0402f800d00300002f
:020000040000fa
:0402fc00d00300002b
:020000040000fa
:04030000d003000026
:020000040000fa
:04030400d003000022
:020000040000fa
:04030800d00300001e
:020000040000fa
:04030c00d00300001a
:020000040000fa
:04031000d003000016
:020000040000fa
:04031400d003000012
:020000040000fa
:04031800d00300000e
:020000040000fa
:04031c00d00300000a
:020000040000fa
:04032000d003000006
:020000040000fa
:04032400d003000002
:020000040000fa
:04032800d0030000fe
:020000040000fa
:04032c00d0030000fa
:020000040000fa
:04033000d0030000f6
:020000040000fa
:04033400d0030000f2
:020000040000fa
:04033800d0030000ee
:020000040000fa
:04033c00d0030000ea
:020000040000fa
:04034000d0030000e6
:020000040000fa
:04034400d0030000e2
:020000040000fa
:04034800d0030000de
:020000040000fa
:100400006f8020000e7f22000e0188000000000097
:10041000000020000000e000020032000001200087
:100420002002880014000700df0007000000e00041
:1004300003003a00e0ce2000010020000200370057
:100440000000200001002000810f70000100320038
:1004500014000700000020000000e000020032004d
:1004600000000200000000001c0902000000000063
:100470000040da000000fe004440a90060102000a7
:100480000000e0000300320000002000a00188000e
:100490004440a800000006008a1f78008b1f7800e7
:1004a0000000060091018800800478000000eb0045
:1004b0001a003700e284440032a0b4009905ba0063
:1004c000e284440032a0b4009906ba00e2844400f9
:1004d00032a0b4000006eb00476fde00fd07b2005b
:1004e000636ce10003003a00ebff07000000eb0043
:1004f0000a003700606ce10004003a00005deb0088
:100500008b05e900fdff3e00040037006168e10053
:10051000010032000086eb000b00070019c7ba008b
:100520001905ba000e04e00003003a000a00e000da
:10053000e0ff3a0000000600fe07b2009e018800be
:100540008a047800f5ff3700395dba008b05e900b1
:100550000c003200295dba008b05e900080032006a
:100560000c00e00003003a00e284440032a0b40032
:10057000f5ff370019ddba008b05e900faff3a00f4
:100580008904e800e184440032a0b40000000600c1
:100590003600f800809fbe00829fbe00849fbe0090
:1005a000869fbe003400f80000002000a0018800f3
:1005b0000000fa00204080000000e8002040880091
:1005c0002140800000408000808f50000f003500e7
:1005d000cb22a900cb02a800200320007101070054
:1005e000213e2800a03e28005f01070000fa2000fd
:1005f0006c010700313f2800c03f28005a01070066
:1006000000fa200067010700f3ff3700800c20008c
:100610006401070051402800f04028005201070003
:10062000cb22a90000fa20005e01070081412800ca
:10063000104228004c01070080bb20005901070030
:100640008420a900cb22a8000080fa003400f90021
:100650004f03be004f02be004f01be004f00be0060
:100660003600f900004006003600f800809fbe000a
:10067000829fbe00849fbe00869fbe003400f800ab
:1006800000002000a00188000000fa001040800057
:100690000000e8001040880010408000e90f500082
:1006a00002003a0010002000104088001040800036
:1006b000e10f500003003a00a14228003043280017
:1006c0002901070010408000e20f500003003a00ab
:1006d000c143280030432800230107001040800058
:1006e000e30f500003003a00514428003043280033
:1006f0001d01070010408000e40f500003003a0085
:10070000e144280030432800170107001040800012
:10071000e50f500003003a007145280030432800df
:100720001101070010408000e60f500003003a005e
:1007300001462800304328000b01070010408000cc
:10074000e70f500003003a0091462800304328008c
:100750000501070010408000e80f500003003a0038
:100760002147280030432800ff000700401f2000d9
:100770000c01070084a0a900803e200009010700a9
:100780000080fa003400f9004f03be004f02be00a3
:100790004f01be004f00be003600f90000400600c9
:1007a0000040da000000fe00000005008000780034
:1007b000010178003104e000fdff3a000000510023
:0407c000000006002f
:020000040000fa
:1007c4005265000061630000686500006400000079
:1007d4004d61000078460000617500006c740000f3
:1007e4000057000069720000696e00006720000075
:1007f4002000000043680000656300006b200000d7
:10080400202000000044000045540000454300003f
:1008140054450000442000000046000041550000fb
:100824004c5400002020000020000000445200002e
:100834005638000038320000352000000052000015
:100844006573000065740000696e000067000000b5
:10085400313a0000315f00007374000065700000dd
:100864000053000045540000544900004e47000066
:1008740020000000312f0000325f0000737400007c
:100884006570000000510000747200005f73000086
:10089400746500007000000038740000685f000098
:1008a40073740000657000000031000036740000ad
:1008b40068530000746500007000000033320000cb
:1008c4006e64000053740000657000000046000070
:1008d4006e6300007953000074650000700000002e
:1008e400414c00004c5f0000537400006570000030
:1008f40000000000525500004e4e0000494e00001a
:100904004720000000460000756c00006c53000096
:100914007465000070000000464900004e49000064
:100924005348000045440000003100003a32000002
:100934005f5300007465000070000000313a00004d
:10094400345f000053740000657000000031000043
:100954003a3800005f530000746500007000000026
:1009640031360000746800005374000065700000a4
:1009740000330000326e0000645300007465000010
:1009840070000000466e000063790000537400009c
:100994006570000000480000616c000066530000b0
:1009a40074650000700000003474000068200000ca
:1009b4005374000065700000003800007468000083
:0c09c4002053000074650000700000006b
:020000040000fa
:1009d0000000fa00213a8000f08f2f0000806000b4
:1009e000203a8800f0ff29006019880030002000bc
:1009f00040168800c9e2a900c9c2a900c9a2a9007d
:100a0000c982a900c962a900c942a900c922a900d6
:100a1000c902a900c882a8006116800000e02f006a
:100a200001007000601688000421ef000021ef0033
:100a3000900f20001008880021088000f0fc2f0093
:100a4000008060000050a000200888008460a90099
:100a50009460a90005e1a8007134800000fe2f0019
:100a6000008060000020a000703488001021ef009a
:100a70000621ef000080eb00600888004221ef00b3
:100a800020082000100a880021058000f0f82f00bf
:100a9000008060000060a000200588008420a9007c
:100aa0009420a80011e1a8000a21ef00e0ff2f0028
:100ab0007008880091088000f0fc2f000080600022
:100ac000900888001221a90012c1a90013e1a80012
:100ad00046e1a900310a8000f0f92f000080600093
:100ae000300a8800310a800080ff2f0000806000fb
:100af0003000b300300a880084a0a90094a0a800a8
:100b0000113a8000f00b200000816000600420009a
:100b10007105200023742000804978008149780005
:100b20008249780071348000f00f2e0080806000d0
:100b3000005020000100700070348800103a8000de
:100b4000000178000260a000600420007105200010
:100b50002374200080497800814978008249780018
:100b60000080fa00000006000400fa00000f780080
:100b7000110798008040eb000040eb0002030700e3
:100b80001e0078004303070011c0b3000040eb00d3
:100b9000fd0207001e0090003e0307000080fa00df
:100ba000000006000400fa00100798000021ef0082
:100bb0008460a9000000eb00000f780007003700f8
:100bc0000000000020048000680060000000e000d9
:100bd000fcff32008460a9001e0fe8001e00900098
:100be0009e007800808f5000f5ff35000080fa00ed
:100bf000000006000200fa00000f78000300370032
:100c00000300090000000000000000001e00780042
:100c100000f0a7000000ea000000ea004f00de003c
:100c2000004078001e0fe9000004e000f4ff3a00e5
:100c30000080fa00000006000200fa00004f780071
:100c40001e407800e74f500023003e001e80fb004e
:100c50004200de0000407800614060000080fb0040
:100c6000610060004d00dd005116800001d0a10040
:100c700001007000501688001e80fb000000d100ab
:100c800000407800614060006140600061406000a9
:100c90000080fb00610060004c00dd005116800008
:100ca00001c0a10001007000501688009e4078002d
:100cb00061c0600061406000614060000080fb0036
:100cc000610060004b00dd005116800001b0a10002
:100cd00001007000501688000080fa000000060035
:100ce0000800fa00100798002107980032079800c2
:100cf0001e00900000407800614060000080fb0012
:100d00004f00dd005116800001f0a10001007000cd
:100d1000501688000040eb00c7ff07000000eb0002
:100d2000000f780007003700cbc2a8003e009000fb
:100d3000b0ff0700cbc2a9003e009000adff070046
:100d40001e0fe8002e0090009e007800808f50005b
:100d5000f5ff35000080fa00000006000800fa00e8
:100d60001007980021079800320798001e00900095
:100d700000407800614060000080fb004f00dd0013
:100d80005116800001f0a10001007000501688008b
:100d900010c0b300a8ff07000000eb00000f7800b0
:100da00007003700cbc2a8003e00900091ff07006b
:100db000cbc2a9003e0090008eff07001e0fe80086
:100dc0002e0090009e007800808f5000f5ff3500c7
:100dd0000080fa00000006000800fa0010079800e2
:100de00021079800320798001e009000004078000c
:100df000614060000080fb004f00dd005116800064
:100e000001f0a100010070005016880020c0b3005e
:100e100089ff07000000eb00000f78000700370093
:100e2000cbc2a8003e00900072ff0700cbc2a90011
:100e30003e0090006fff07001e0fe8002e0090009c
:100e40009e007800808f5000f5ff35000080fa008a
:100e5000000006000800fa0010079800210798001b
:100e6000320798001e00900000407800614060004a
:100e70000080fb004f00dd005116800001f0a10052
:100e8000010070005016880030c0b3006aff0700f0
:100e90000000eb00000f780007003700cbc2a8006d
:100ea0003e00900053ff0700cbc2a9003e00900017
:100eb00050ff07001e0fe8002e0090009e007800f3
:100ec000808f5000f5ff35000080fa00000006001a
:100ed0000800fa00100798002107980032079800d0
:100ee0001e00900000407800614060000080fb0020
:100ef0004f00dd005116800001f0a10001007000dc
:100f00005016880040c0b3004bff07000000eb0004
:100f1000000f780007003700cbc2a8003e00900009
:100f200034ff0700cbc2a9003e00900031ff07004c
:100f30001e0fe8002e0090009e007800808f500069
:100f4000f5ff35000080fa00000006000800fa00f6
:100f50001007980021079800320798001e009000a3
:100f600000407800614060000080fb004f00dd0021
:100f70005116800001f0a100010070005016880099
:100f800050c0b3002cff07000000eb00000f7800fa
:100f900007003700cbc2a8003e00900015ff0700f5
:100fa000cbc2a9003e00900012ff07001e0fe80010
:100fb0002e0090009e007800808f5000f5ff3500d5
:100fc0000080fa00000006001c00fa00889fbe00a6
:100fd0008a9fbe006007980074079800050f98006c
:100fe000160f9800270f980061579800420f98003d
:100ff000530f98006e009000004078006140600040
:101000000080fb004f00dd005116800001f0a100c0
:1010100001007000501688006000b8006011b80030
:10102000009fbe000297be001000200040079800fd
:10103000beb89700510798006e509000fefe070062
:101040005b003700cbc2a8005e009000e9fe0700fd
:10105000cbc2a9005e0090000080e900e5fe070019
:10106000ce0090004eb89700808f500043003900aa
:101070005e0890000000e000340034007e00900024
:101080008e0890001e099000ae0990003e045000aa
:10109000be8458003e0559009e8559006e00b1007f
:1010a000f0ff2f00f1ff2f000001be0000024400fe
:1010b00081824c0002034d0083834d009eb897004f
:1010c0005e009000808050005e0890000001780073
:1010d000110009008200d800800078004e009000c6
:1010e0000088b90000007800cf80de006109b900f7
:1010f0000020e10001a8e10002b0e10003b8e10036
:1011000009003c00de0090001eb89700808f500060
:1011100005003c00de0090005e089000008040006a
:101120005007980013003700de0090002eb897009b
:10113000808f50000e003400de0090004e089000ba
:1011400000805000500798000a003700de00900031
:101150002eb89700808f500006003400de0090000b
:101160004e089000008050005007980001003700a2
:101170000000000010002000400798003e02be0062
:101180002e03be0010002000010020006011b800f6
:10119000001f4200019f4a00021f4b00038f4b00bb
:1011a0006e00b1004e0090000000e800400798007b
:1011b0007e0490008e0c90001e0d9000ae0d9000ed
:1011c000f0ff2f00f1ff2f000001be0000024400dd
:1011d00081824c0002034d0083834d003e00be001f
:1011e0002e01be000020e10001a8e10002b0e100f4
:1011f00003b8e10093ff3c00cbc2a8005e00900062
:101200007cfe0700cbc2a9005e0090006300500086
:1012100078fe07004f05be004f04be000080fa00b4
:10122000000006000000fa00e9fd0700fa000700d0
:101230000080fa00000006000200fa00f9ff070033
:101240000000eb00000f78002003200055fe07008f
:1012500010408000e10f50000d003a00c147280007
:101260005048280040fe070082382100810c2000f1
:101270001e0078009afe0700e14828005048280028
:1012800039fe0700401f200046fe0700da00370045
:1012900010408000e20f50000d003a00c1472800c6
:1012a0007049280030fe070002e1200001192000eb
:1012b0001e007800a9fe0700e148280070492800b8
:1012c00029fe0700401f200036fe0700ca00370035
:1012d00010408000e30f50000d003a00c147280085
:1012e000004a280020fe0700429c20000132200016
:1012f0001e007800b8fe0700e1482800004a2800d8
:1013000019fe0700401f200026fe0700ba00370024
:1013100010408000e40f50000d003a00c147280043
:10132000904a280010fe070002642000016420009b
:101330001e007800c7fe0700e1482800904a2800f8
:1013400009fe0700401f200016fe0700aa00370014
:1013500010408000e50f50000d003a00c147280002
:10136000204b280000fe07000232200001c82000a8
:101370001e007800d6fe0700e1482800204b280018
:10138000f9fd0700401f200006fe07009a00370005
:1013900010408000e60f50000d003a00c1472800c1
:1013a000b04b2800f0fd0700c21220000190210080
:1013b0001e007800e5fe0700e1482800b04b280039
:1013c000e9fd0700401f2000f6fd07008a003700f6
:1013d00010408000e70f50001a003a00c147280073
:1013e000404c2800e0fd0700c0122000801f78005c
:1013f00090012000801f7800a00f2000801f78003f
:1014000000022000801f78005300200012002000fe
:1014100051c0b30004982800050020006033b800d4
:101420001e007800e8fe0700e8875700e148280022
:10143000404c2800ccfd0700401f2000d9fd0700cc
:101440006d003700c147280050482800c6fd07003e
:1014500082382100810c20001e00780020fe070049
:10146000e148280050482800bffd0700401f200029
:10147000ccfd0700c1472800d04c2800bafd07006a
:101480001e00780000f0a7000000ea000000e9005c
:101490004f00de0002e12000011920002ffe0700ae
:1014a000e1482800d04c2800affd0700401f200075
:1014b000bcfd0700c1472800604d2800aafd0700b9
:1014c000429c2000013220001e00780042fe0700ee
:1014d000e1482800604d2800a3fd0700401f2000c0
:1014e000b0fd0700c1472800f04d28009efd070011
:1014f0001e00780000f0a7000000ea000000e900ec
:101500004f00de00026420000164200051fe07004d
:10151000e1482800f04d280093fd0700401f2000ff
:10152000a0fd0700c1472800204b28008efd0700c2
:101530000232200001c820001e00780064fe07006f
:10154000e1482800204b280087fd0700401f2000ad
:1015500094fd0700c1472800b04b280082fd07001a
:101560001e00780000f0a7000000ea000000e9007b
:101570004f00de00c21220000190210073fe070020
:10158000e1482800b04b280077fd0700401f2000ed
:1015900084fd0700c1472800404c280072fd070069
:1015a000c0122000801f780090012000801f78006a
:1015b000a00f2000801f780000022000801f78000c
:1015c000530020001200200051c0b30004982800ee
:1015d000050020006033b8001e0078007afe070086
:1015e000e8875700e1482800404c28005efd0700ce
:1015f000401f20006bfd07001e00780000f0a700d0
:101600000000ea00000fe9001e0078004f00de0035
:10161000000f78000eff37000000fa0017e2a90063
:10162000d0092000a010880017e2a8008a40a90075
:101630002c0007008040eb000040eb005200070048
:101640000080fa00000006000200fa00004f780057
:101650001602a80000000000b010800061006000c9
:101660000000e000fcff3a008a40a900c00720000b
:1016700090108800000000005004800064006000aa
:101680000000e000fcff32008a40a9001222ef00b7
:101690000000000050048000640060000000e000d2
:1016a000fcff32008a40a9001e80fb0090108800d9
:1016b0000000000050048000640060000000e000b2
:1016c000fcff32001642a80000000000b0108000ad
:1016d000640060000000e000fcff3a000080fa00b7
:1016e000000006000000fa00a00f20002dfd0700fa
:1016f00080c3b300d4ff07001000200029fd0700bd
:1017000090c3b300d0ff07001000200025fd0700a4
:1017100040c1b300ccff07001000200021fd0700ee
:1017200000c7b300c8ff0700100020001dfd070020
:1017300060c5b300c4ff07001000200019fd0700ba
:10174000c0c6b300c0ff0700200d200015fd070034
:1017500080c3b300bcff07001000200011fd07008c
:10176000c0c0b300b8ff0700100020000dfd070047
:1017700010c0b300b4ff07004001200009fd0700be
:101780000080fa00000006000400fa0020479800dc
:10179000314798000000eb00000f780020c0b30034
:1017a000a9ff070010002000fefc0700050037001d
:1017b00040c1b300a4ff070010002000f9fc07009f
:1017c0001e0fe8002e4090000001fb003e409000fc
:1017d0008000fb00800220000088b9000000780033
:1017e000000041009e0f5000f1ff3c000080fa0015
:1017f000000006000200fa00004f78001602a80060
:1018000000000000b0108000610060000000e000f7
:10181000fcff3a008a40a900c00720009010880011
:101820000000000050048000640060000000e00040
:10183000fcff32008a40a9000004200090108800bc
:101840000000000050048000640060000000e00020
:10185000fcff32008a40a9001e00fb0090108800a7
:101860000000000050048000640060000000e00000
:10187000fcff32001642a80000000000b0108000fb
:10188000640060000000e000fcff3a000080fa0005
:10189000000006000600fa00200798002e009000c5
:1018a000c2fb0700100798001602a8000000000005
:1018b000b0108000610060000000e000fcff3a0012
:1018c0008a40a900c0072000901088000000000096
:1018d00050048000640060000000e000fcff320063
:1018e0008a40a9000000eb00000f780015003700c7
:1018f000000c2000901088000000000050048000c0
:10190000640060000000e000fcff32008a40a90093
:101910001e007800ae00900000804000104078006b
:101920000000fb00901088000000000050048000c0
:10193000640060000000e000fcff32008a40a90063
:101940001e0fe8001e0090000000e9009e0f5000ee
:10195000e7ff3c0000042000901088000000000019
:1019600050048000640060000000e000fcff3200d2
:101970008a40a9001e0090000000e900ae0090001f
:1019800000804000104078000000fb0090108800ac
:101990000000000050048000640060000000e000cf
:1019a000fcff32008a40a9001642a8000000000097
:1019b000b0108000640060000000e000fcff3a000e
:1019c0000080fa00000006000000fa0080c1b300a9
:0c19d0001dff07000080fa000000060068
:020000040000fa
:1019dc0000080000040000000200000002000100ea
:1019ec0000000000040800000200000000000000dd
:0419fc0000000000e7
:020000040000fa
:020000040001f9
:0457f8000ff90000a5
:020000040000fa
:020000040001f9
:0457fc007f3f0000eb
:00000001FF
