:020000040000fa
:080000000002040000000000f2
:020000040000fa
:0400080034030000bd
:020000040000fa
:04000c0034030000b9
:020000040000fa
:0400100034030000b5
:020000040000fa
:0400140034030000b1
:020000040000fa
:0400180034030000ad
:020000040000fa
:04001c0034030000a9
:020000040000fa
:0400200034030000a5
:020000040000fa
:0400240034030000a1
:020000040000fa
:04002800340300009d
:020000040000fa
:04002c00c802000006
:020000040000fa
:040030003403000095
:020000040000fa
:040034003403000091
:020000040000fa
:04003800340300008d
:020000040000fa
:04003c003403000089
:020000040000fa
:040040003403000085
:020000040000fa
:040044003403000081
:020000040000fa
:04004800340300007d
:020000040000fa
:04004c003403000079
:020000040000fa
:040050003403000075
:020000040000fa
:040054003403000071
:020000040000fa
:04005800340300006d
:020000040000fa
:04005c003403000069
:020000040000fa
:040060003403000065
:020000040000fa
:040064003403000061
:020000040000fa
:04006800340300005d
:020000040000fa
:04006c003403000059
:020000040000fa
:040070003403000055
:020000040000fa
:040074003403000051
:020000040000fa
:04007800340300004d
:020000040000fa
:04007c003403000049
:020000040000fa
:040080003403000045
:020000040000fa
:040084003403000041
:020000040000fa
:04008800340300003d
:020000040000fa
:04008c003403000039
:020000040000fa
:040090003403000035
:020000040000fa
:040094003403000031
:020000040000fa
:04009800340300002d
:020000040000fa
:04009c003403000029
:020000040000fa
:0400a0003403000025
:020000040000fa
:0400a4003403000021
:020000040000fa
:0400a800340300001d
:020000040000fa
:0400ac003403000019
:020000040000fa
:0400b0003403000015
:020000040000fa
:0400b4003403000011
:020000040000fa
:0400b800340300000d
:020000040000fa
:0400bc003403000009
:020000040000fa
:0400c0003403000005
:020000040000fa
:0400c4003403000001
:020000040000fa
:0400c80034030000fd
:020000040000fa
:0400cc0034030000f9
:020000040000fa
:0400d00034030000f5
:020000040000fa
:0400d40034030000f1
:020000040000fa
:0400d80034030000ed
:020000040000fa
:0400dc0034030000e9
:020000040000fa
:0400e00034030000e5
:020000040000fa
:0400e40034030000e1
:020000040000fa
:0400e80034030000dd
:020000040000fa
:0400ec0034030000d9
:020000040000fa
:0400f00034030000d5
:020000040000fa
:0400f40034030000d1
:020000040000fa
:0400f80034030000cd
:020000040000fa
:0400fc0034030000c9
:020000040000fa
:0401000034030000c4
:020000040000fa
:0401040034030000c0
:020000040000fa
:0401080034030000bc
:020000040000fa
:04010c0034030000b8
:020000040000fa
:0401100034030000b4
:020000040000fa
:0401140034030000b0
:020000040000fa
:0401180034030000ac
:020000040000fa
:04011c0034030000a8
:020000040000fa
:0401200034030000a4
:020000040000fa
:0401240034030000a0
:020000040000fa
:04012800340300009c
:020000040000fa
:04012c003403000098
:020000040000fa
:040130003403000094
:020000040000fa
:040134003403000090
:020000040000fa
:04013800340300008c
:020000040000fa
:04013c003403000088
:020000040000fa
:040140003403000084
:020000040000fa
:040144003403000080
:020000040000fa
:04014800340300007c
:020000040000fa
:0402080034030000bb
:020000040000fa
:04020c0034030000b7
:020000040000fa
:0402100034030000b3
:020000040000fa
:0402140034030000af
:020000040000fa
:0402180034030000ab
:020000040000fa
:04021c0034030000a7
:020000040000fa
:0402200034030000a3
:020000040000fa
:04022400340300009f
:020000040000fa
:04022800340300009b
:020000040000fa
:04022c00c802000004
:020000040000fa
:040230003403000093
:020000040000fa
:04023400340300008f
:020000040000fa
:04023800340300008b
:020000040000fa
:04023c003403000087
:020000040000fa
:040240003403000083
:020000040000fa
:04024400340300007f
:020000040000fa
:04024800340300007b
:020000040000fa
:04024c003403000077
:020000040000fa
:040250003403000073
:020000040000fa
:04025400340300006f
:020000040000fa
:04025800340300006b
:020000040000fa
:04025c003403000067
:020000040000fa
:040260003403000063
:020000040000fa
:04026400340300005f
:020000040000fa
:04026800340300005b
:020000040000fa
:04026c003403000057
:020000040000fa
:040270003403000053
:020000040000fa
:04027400340300004f
:020000040000fa
:04027800340300004b
:020000040000fa
:04027c003403000047
:020000040000fa
:040280003403000043
:020000040000fa
:04028400340300003f
:020000040000fa
:04028800340300003b
:020000040000fa
:04028c003403000037
:020000040000fa
:040290003403000033
:020000040000fa
:04029400340300002f
:020000040000fa
:04029800340300002b
:020000040000fa
:04029c003403000027
:020000040000fa
:0402a0003403000023
:020000040000fa
:0402a400340300001f
:020000040000fa
:0402a800340300001b
:020000040000fa
:0402ac003403000017
:020000040000fa
:0402b0003403000013
:020000040000fa
:0402b400340300000f
:020000040000fa
:0402b800340300000b
:020000040000fa
:0402bc003403000007
:020000040000fa
:0402c0003403000003
:020000040000fa
:0402c40034030000ff
:020000040000fa
:0402c80034030000fb
:020000040000fa
:0402cc0034030000f7
:020000040000fa
:0402d00034030000f3
:020000040000fa
:0402d40034030000ef
:020000040000fa
:0402d80034030000eb
:020000040000fa
:0402dc0034030000e7
:020000040000fa
:0402e00034030000e3
:020000040000fa
:0402e40034030000df
:020000040000fa
:0402e80034030000db
:020000040000fa
:0402ec0034030000d7
:020000040000fa
:0402f00034030000d3
:020000040000fa
:0402f40034030000cf
:020000040000fa
:0402f80034030000cb
:020000040000fa
:0402fc0034030000c7
:020000040000fa
:0403000034030000c2
:020000040000fa
:0403040034030000be
:020000040000fa
:0403080034030000ba
:020000040000fa
:04030c0034030000b6
:020000040000fa
:0403100034030000b2
:020000040000fa
:0403140034030000ae
:020000040000fa
:0403180034030000aa
:020000040000fa
:04031c0034030000a6
:020000040000fa
:0403200034030000a2
:020000040000fa
:04032400340300009e
:020000040000fa
:04032800340300009a
:020000040000fa
:04032c003403000096
:020000040000fa
:040330003403000092
:020000040000fa
:04033400340300008e
:020000040000fa
:04033800340300008a
:020000040000fa
:04033c003403000086
:020000040000fa
:040340003403000082
:020000040000fa
:04034400340300007e
:020000040000fa
:04034800340300007a
:020000040000fa
:100400008f8020000e7f22000e0188000000000077
:10041000000020000000e000020032000001200087
:100420002002880014000700910007000000e0008f
:1004300003003a00009b200001002000020037006a
:100440000000200001002000810f70000100320038
:1004500014000700000020000000e000020032004d
:100460000000020000000000600502000000000023
:100470000040da000000fe004440a90040062000d1
:100480000000e0000300320000002000a00188000e
:100490004440a800000006008a1f78008b1f7800e7
:1004a0000000060091018800800478000000eb0045
:1004b0001a003700e284440032a0b4009905ba0063
:1004c000e284440032a0b4009906ba00e2844400f9
:1004d00032a0b4000006eb00476fde00fd07b2005b
:1004e000636ce10003003a00ebff07000000eb0043
:1004f0000a003700606ce10004003a00005deb0088
:100500008b05e900fdff3e00040037006168e10053
:10051000010032000086eb000b00070019c7ba008b
:100520001905ba000e04e00003003a000a00e000da
:10053000e0ff3a0000000600fe07b2009e018800be
:100540008a047800f5ff3700395dba008b05e900b1
:100550000c003200295dba008b05e900080032006a
:100560000c00e00003003a00e284440032a0b40032
:10057000f5ff370019ddba008b05e900faff3a00f4
:100580008904e800e184440032a0b40000000600c1
:100590003600f800809fbe00829fbe00849fbe0090
:1005a000869fbe003400f80000002000a0018800f3
:1005b0000000fa00304080000000e8003040880071
:1005c0003140800020408000808f50000f003500b7
:1005d000cb22a900cb02a80020032000a401070021
:1005e00061342800e03428002601070000fa2000ca
:1005f0009f010700713528000036280021010700ff
:1006000000fa20009a010700f3ff3700400620009f
:10061000970107009136280030372800190107009c
:10062000cb22a90000fa200091010700c137280061
:10063000503828001301070080bb20008c01070000
:100640008420a900cb22a8000080fa003400f90021
:100650004f03be004f02be004f01be004f00be0060
:100660003600f900004006000040da000000fe00fd
:100670000000050080007800010178003104e000ee
:0c068000fdff3a000000510000000600e1
:020000040000fa
:10068c0052650000616300006865000064000000b2
:10069c004d61000078460000617500006c7400002c
:1006ac000057000069720000696e000067200000ae
:1006bc002000000043680000656300006b20000010
:1006cc002020000000440000455400004543000079
:1006dc005445000044200000004600004155000035
:1006ec004c54000020200000200000004452000068
:1006fc00563800003832000035200000005200004f
:10070c006573000065740000696e000067000000ee
:10071c00525500004e4e0000494e0000472000008c
:10072c00004600006e630000795300007465000001
:10073c0070000000464900004e490000534800007c
:08074c0045440000000000001c
:020000040000fa
:100754000000fa00213a8000f08f2f000080600032
:10076400203a8800f0ff2900601988000d01070075
:10077400090207000080fa00000006000600fa00e3
:10078400100798002107980010c0b3005c0107000f
:100794000000eb00000f780007003700cbc2a80070
:1007a4002e00900045010700cbc2a9002e00900046
:1007b400420107001e0fe8001e0090009e00780012
:1007c400808f5000f5ff35000080fa00000006001d
:1007d4000600fa00100798002107980030c0b30003
:1007e400470107000000eb00000f78000700370006
:1007f400cbc2a8002e00900030010700cbc2a90094
:100804002e0090002d0107001e0fe8001e0090002e
:100814009e007800808f5000f5ff35000080fa00bc
:10082400000006001c00fa00889fbe008a9fbe00dc
:100834006007980074079800050f9800160f980039
:10084400270f980061579800420f9800530f9800a3
:100854006e00900000407800614060000080fb0062
:100864004f00dd005116800001f0a100010070006e
:10087400501688006000b8006011b800009fbe00e8
:100884000297be001000200040079800beb89700f1
:10089400510798006e509000190107005b00370063
:1008a400cbc2a8005e00900004010700cbc2a900df
:1008b4005e0090000080e90000010700ce00900077
:1008c4004eb89700808f5000430039005e089000b6
:1008d4000000e000340034007e0090008e08900098
:1008e4001e099000ae0990003e045000be845800da
:1008f4003e0559009e8559006e00b100f0ff2f009f
:10090400f1ff2f000001be000002440081824c0070
:1009140002034d0083834d009eb897005e00900053
:10092400808050005e0890000001780011000900ea
:100934008200d800800078004e0090000088b90042
:1009440000007800cf80de006109b9000020e100da
:1009540001a8e10002b0e10003b8e10009003c0095
:10096400de0090001eb89700808f500005003c0008
:10097400de0090005e089000008040005007980060
:1009840013003700de0090002eb89700808f5000cf
:100994000e003400de0090004e08900000805000ed
:1009a400500798000a003700de0090002eb8970028
:1009b400808f500006003400de0090004e08900046
:1009c400008050005007980001003700000000002c
:1009d40010002000400798003e02be002e03be0017
:1009e40010002000010020006011b800001f420028
:1009f400019f4a00021f4b00038f4b006e00b100a1
:100a04004e0090000000e800400798007e0490002b
:100a14008e0c90001e0d9000ae0d9000f0ff2f0084
:100a2400f1ff2f000001be000002440081824c004f
:100a340002034d0083834d003e00be002e01be0024
:100a44000020e10001a8e10002b0e10003b8e100e8
:100a540093ff3c00cbc2a8005e0090009700070003
:100a6400cbc2a9005e009000630050009300070011
:100a74004f05be004f04be000080fa0000000600cf
:100a84000400fa00000f7800110798008040eb0082
:100a94000040eb009c0107001e007800dd01070008
:100aa40011c0b3000040eb00970107001e00900046
:100ab400d80107000080fa00000006000400fa00d4
:100ac40023ff07000000eb00000f78002003200044
:100ad400660007000000eb00100798001e00780075
:100ae40000f0a7000000ea00000fe9001e007800f3
:100af4004f00de00000f7800e1382800703928002c
:100b0400dfff070010012000801f78001001200083
:100b1400801f7800c0122000801f7800000420008d
:100b2400801f7800230020001200200051c0b30071
:100b340004d02700050020006033b8001e007800b0
:100b440038ff0700e8875700c0122000801f780094
:100b540010012000801f780010012000801f780001
:100b640000082000801f78002300200012002000cd
:100b740051c0b30004a02f00050020006033b8006a
:100b84001e00780027ff0700e8875700013a280075
:100b940070392800baff0700401f20003300070007
:100ba400ceff37000000fa00300120004016880014
:100bb400c9e2a900c9c2a900c9a2a900c982a900a1
:100bc400c962a900c942a900c922a900c902a90091
:100bd400c882a8006116800000e02f0001007000a8
:100be400601688000421ef000021ef00900f200020
:100bf4001008880021088000f0fc2f0000806000ad
:100c04000050a000200888008460a9009460a90016
:100c140005e1a8007134800000fe2f000080600010
:100c24000020a000703488001021ef000621ef009e
:100c34000080eb00600888004221ef0020082000bb
:100c4400100a880021058000f0f82f000080600061
:100c54000060a000200588008420a9009420a8003a
:100c640011e1a8000080fa00000006000400fa0068
:100c7400100798000021ef008460a9000000eb0039
:100c8400000f7800070037000000000020048000f7
:100c9400680060000000e000fcff32008460a900ee
:100ca4001e0fe8001e0090009e007800808f500008
:100cb400f5ff35000080fa00000006000200fa008b
:100cc400000f780003003700030009000000000053
:100cd400000000001e00780000f0a7000000ea00f9
:100ce4000000ea004f00de00004078001e0fe9001b
:100cf4000004e000f4ff3a000080fa00000006005f
:100d04000200fa00004f78001e407800e74f5000c0
:100d140023003e001e80fb004200de0000407800fd
:100d2400614060000080fb00610060004d00dd0058
:100d34005116800001d0a1000100700050168800f7
:100d44001e80fb000000d10000407800614060007c
:100d540061406000614060000080fb006100600051
:100d64004c00dd005116800001c0a100010070009c
:100d7400501688009e40780061c0600061406000a9
:100d8400614060000080fb00610060004b00dd00fa
:100d94005116800001b0a1000100700050168800b7
:100da4000080fa00000006000800fa00100798000e
:100db40021079800320798001e0090000040780038
:100dc400614060000080fb004f00dd005116800090
:100dd40001f0a10001007000501688000040eb00f3
:100de400c7ff07000000eb00000f78000700370082
:100df400cbc2a8003e009000b0ff0700cbc2a90000
:100e04003e009000adff07001e0fe8002e0090008a
:100e14009e007800808f5000f5ff35000080fa00b6
:100e2400000006000800fa00100798002107980047
:100e3400320798001e009000004078006140600076
:100e44000080fb004f00dd005116800001f0a1007e
:100e5400010070005016880020c0b300a8ff0700ee
:100e64000000eb00000f780007003700cbc2a80099
:100e74003e00900091ff0700cbc2a9003e00900005
:100e84008eff07001e0fe8002e0090009e007800e1
:100e9400808f5000f5ff35000080fa000000060046
:100ea4000800fa00100798002107980032079800fc
:100eb4001e00900000407800614060000080fb004c
:100ec4004f00dd005116800001f0a1000100700008
:100ed4005016880040c0b30089ff07000000eb00f3
:100ee400000f780007003700cbc2a8003e00900036
:100ef40072ff0700cbc2a9003e0090006fff0700fd
:100f04001e0fe8002e0090009e007800808f500095
:100f1400f5ff35000080fa00000006000800fa0022
:100f24001007980021079800320798001e009000cf
:100f340000407800614060000080fb004f00dd004d
:100f44005116800001f0a1000100700050168800c5
:100f540050c0b3006aff07000000eb00000f7800e8
:100f640007003700cbc2a8003e00900053ff0700e3
:100f7400cbc2a9003e00900050ff07001e0fe800fe
:100f84002e0090009e007800808f5000f5ff350001
:100f94000080fa00000006000000fa0017e2a90031
:100fa400d0092000a010880017e2a8008a40a900f8
:100fb4002c0007008040eb000040eb0052000700cb
:100fc4000080fa00000006000200fa00004f7800da
:100fd4001602a80000000000b0108000610060004c
:100fe4000000e000fcff3a008a40a900c00720008e
:100ff400901088000000000050048000640060002d
:101004000000e000fcff32008a40a9001222ef0039
:101014000000000050048000640060000000e00054
:10102400fcff32008a40a9001e80fb00901088005b
:101034000000000050048000640060000000e00034
:10104400fcff32001642a80000000000b01080002f
:10105400640060000000e000fcff3a000080fa0039
:10106400000006000000fa00a00f2000fffe0700a9
:1010740080c3b300d4ff070010002000fbfe07006c
:1010840090c3b300d0ff070010002000f7fe070054
:1010940040c1b300ccff070010002000f3fe07009e
:1010a40000c7b300c8ff070010002000effe0700d0
:1010b40060c5b300c4ff070010002000ebfe07006a
:1010c400c0c6b300c0ff0700200d2000e7fe0700e4
:1010d40080c3b300bcff070010002000e3fe07003c
:1010e400c0c0b300b8ff070010002000dffe0700f7
:1010f40010c0b300b4ff070040012000dbfe07006e
:101104000080fa00000006000400fa00204798005e
:10111400314798000000eb00000f780020c0b300b6
:10112400a9ff070010002000d0fe070005003700cb
:1011340040c1b300a4ff070010002000cbfe07004d
:101144001e0fe8002e4090000001fb003e4090007e
:101154008000fb00800220000088b90000007800b5
:10116400000041009e0f5000f1ff3c000080fa0097
:10117400000006000200fa00004f78001602a800e2
:1011840000000000b0108000610060000000e0007a
:10119400fcff3a008a40a900c00720009010880094
:1011a4000000000050048000640060000000e000c3
:1011b400fcff32008a40a90000042000901088003f
:1011c4000000000050048000640060000000e000a3
:1011d400fcff32008a40a9001e00fb00901088002a
:1011e4000000000050048000640060000000e00083
:1011f400fcff32001642a80000000000b01080007e
:10120400640060000000e000fcff3a000080fa0087
:10121400000006000600fa00200798002e00900047
:1012240013fd0700100798001602a8000000000034
:10123400b0108000610060000000e000fcff3a0094
:101244008a40a900c0072000901088000000000018
:1012540050048000640060000000e000fcff3200e5
:101264008a40a9000000eb00000f78001500370049
:10127400000c200090108800000000005004800042
:10128400640060000000e000fcff32008a40a90016
:101294001e007800ae0090000080400010407800ee
:1012a4000000fb0090108800000000005004800043
:1012b400640060000000e000fcff32008a40a900e6
:1012c4001e0fe8001e0090000000e9009e0f500071
:1012d400e7ff3c000004200090108800000000009c
:1012e40050048000640060000000e000fcff320055
:1012f4008a40a9001e0090000000e900ae009000a2
:1013040000804000104078000000fb00901088002e
:101314000000000050048000640060000000e00051
:10132400fcff32008a40a9001642a8000000000019
:10133400b0108000640060000000e000fcff3a0090
:101344000080fa00000006000000fa0080c1b3002b
:0c1354001dff07000080fa0000000600ea
:020000040000fa
:10136000040800000200000002000000020000006b
:101370000608000002000000000000000008000055
:101380000400000002000000e8033000020000003a
:041390000000000059
:020000040000fa
:020000040001f9
:0457f8000ff90000a5
:020000040000fa
:020000040001f9
:0457fc007f3f0000eb
:00000001FF
