:020000040000fa
:080000000002040000000000f2
:020000040000fa
:04000800cc03000025
:020000040000fa
:04000c00cc03000021
:020000040000fa
:04001000cc0300001d
:020000040000fa
:04001400cc03000019
:020000040000fa
:04001800cc03000015
:020000040000fa
:04001c00cc03000011
:020000040000fa
:04002000cc0300000d
:020000040000fa
:04002400cc03000009
:020000040000fa
:04002800cc03000005
:020000040000fa
:04002c00c802000006
:020000040000fa
:04003000cc030000fd
:020000040000fa
:04003400cc030000f9
:020000040000fa
:04003800cc030000f5
:020000040000fa
:04003c003403000089
:020000040000fa
:04004000cc030000ed
:020000040000fa
:04004400cc030000e9
:020000040000fa
:04004800cc030000e5
:020000040000fa
:04004c00cc030000e1
:020000040000fa
:04005000cc030000dd
:020000040000fa
:04005400cc030000d9
:020000040000fa
:04005800cc030000d5
:020000040000fa
:04005c00cc030000d1
:020000040000fa
:04006000cc030000cd
:020000040000fa
:04006400cc030000c9
:020000040000fa
:04006800cc030000c5
:020000040000fa
:04006c00cc030000c1
:020000040000fa
:04007000cc030000bd
:020000040000fa
:04007400cc030000b9
:020000040000fa
:04007800cc030000b5
:020000040000fa
:04007c00cc030000b1
:020000040000fa
:04008000cc030000ad
:020000040000fa
:04008400cc030000a9
:020000040000fa
:04008800cc030000a5
:020000040000fa
:04008c00cc030000a1
:020000040000fa
:04009000cc0300009d
:020000040000fa
:04009400cc03000099
:020000040000fa
:04009800cc03000095
:020000040000fa
:04009c00cc03000091
:020000040000fa
:0400a000cc0300008d
:020000040000fa
:0400a400cc03000089
:020000040000fa
:0400a800cc03000085
:020000040000fa
:0400ac00cc03000081
:020000040000fa
:0400b000cc0300007d
:020000040000fa
:0400b400cc03000079
:020000040000fa
:0400b800cc03000075
:020000040000fa
:0400bc00cc03000071
:020000040000fa
:0400c000cc0300006d
:020000040000fa
:0400c400cc03000069
:020000040000fa
:0400c800cc03000065
:020000040000fa
:0400cc00cc03000061
:020000040000fa
:0400d000cc0300005d
:020000040000fa
:0400d400cc03000059
:020000040000fa
:0400d800cc03000055
:020000040000fa
:0400dc00cc03000051
:020000040000fa
:0400e000cc0300004d
:020000040000fa
:0400e400cc03000049
:020000040000fa
:0400e800cc03000045
:020000040000fa
:0400ec00cc03000041
:020000040000fa
:0400f000cc0300003d
:020000040000fa
:0400f400cc03000039
:020000040000fa
:0400f800cc03000035
:020000040000fa
:0400fc00cc03000031
:020000040000fa
:04010000cc0300002c
:020000040000fa
:04010400cc03000028
:020000040000fa
:04010800cc03000024
:020000040000fa
:04010c00cc03000020
:020000040000fa
:04011000cc0300001c
:020000040000fa
:04011400cc03000018
:020000040000fa
:04011800cc03000014
:020000040000fa
:04011c00cc03000010
:020000040000fa
:04012000cc0300000c
:020000040000fa
:04012400cc03000008
:020000040000fa
:04012800cc03000004
:020000040000fa
:04012c00cc03000000
:020000040000fa
:04013000cc030000fc
:020000040000fa
:04013400cc030000f8
:020000040000fa
:04013800cc030000f4
:020000040000fa
:04013c00cc030000f0
:020000040000fa
:04014000cc030000ec
:020000040000fa
:04014400cc030000e8
:020000040000fa
:04014800cc030000e4
:020000040000fa
:04020800cc03000023
:020000040000fa
:04020c00cc0300001f
:020000040000fa
:04021000cc0300001b
:020000040000fa
:04021400cc03000017
:020000040000fa
:04021800cc03000013
:020000040000fa
:04021c00cc0300000f
:020000040000fa
:04022000cc0300000b
:020000040000fa
:04022400cc03000007
:020000040000fa
:04022800cc03000003
:020000040000fa
:04022c00c802000004
:020000040000fa
:04023000cc030000fb
:020000040000fa
:04023400cc030000f7
:020000040000fa
:04023800cc030000f3
:020000040000fa
:04023c003403000087
:020000040000fa
:04024000cc030000eb
:020000040000fa
:04024400cc030000e7
:020000040000fa
:04024800cc030000e3
:020000040000fa
:04024c00cc030000df
:020000040000fa
:04025000cc030000db
:020000040000fa
:04025400cc030000d7
:020000040000fa
:04025800cc030000d3
:020000040000fa
:04025c00cc030000cf
:020000040000fa
:04026000cc030000cb
:020000040000fa
:04026400cc030000c7
:020000040000fa
:04026800cc030000c3
:020000040000fa
:04026c00cc030000bf
:020000040000fa
:04027000cc030000bb
:020000040000fa
:04027400cc030000b7
:020000040000fa
:04027800cc030000b3
:020000040000fa
:04027c00cc030000af
:020000040000fa
:04028000cc030000ab
:020000040000fa
:04028400cc030000a7
:020000040000fa
:04028800cc030000a3
:020000040000fa
:04028c00cc0300009f
:020000040000fa
:04029000cc0300009b
:020000040000fa
:04029400cc03000097
:020000040000fa
:04029800cc03000093
:020000040000fa
:04029c00cc0300008f
:020000040000fa
:0402a000cc0300008b
:020000040000fa
:0402a400cc03000087
:020000040000fa
:0402a800cc03000083
:020000040000fa
:0402ac00cc0300007f
:020000040000fa
:0402b000cc0300007b
:020000040000fa
:0402b400cc03000077
:020000040000fa
:0402b800cc03000073
:020000040000fa
:0402bc00cc0300006f
:020000040000fa
:0402c000cc0300006b
:020000040000fa
:0402c400cc03000067
:020000040000fa
:0402c800cc03000063
:020000040000fa
:0402cc00cc0300005f
:020000040000fa
:0402d000cc0300005b
:020000040000fa
:0402d400cc03000057
:020000040000fa
:0402d800cc03000053
:020000040000fa
:0402dc00cc0300004f
:020000040000fa
:0402e000cc0300004b
:020000040000fa
:0402e400cc03000047
:020000040000fa
:0402e800cc03000043
:020000040000fa
:0402ec00cc0300003f
:020000040000fa
:0402f000cc0300003b
:020000040000fa
:0402f400cc03000037
:020000040000fa
:0402f800cc03000033
:020000040000fa
:0402fc00cc0300002f
:020000040000fa
:04030000cc0300002a
:020000040000fa
:04030400cc03000026
:020000040000fa
:04030800cc03000022
:020000040000fa
:04030c00cc0300001e
:020000040000fa
:04031000cc0300001a
:020000040000fa
:04031400cc03000016
:020000040000fa
:04031800cc03000012
:020000040000fa
:04031c00cc0300000e
:020000040000fa
:04032000cc0300000a
:020000040000fa
:04032400cc03000006
:020000040000fa
:04032800cc03000002
:020000040000fa
:04032c00cc030000fe
:020000040000fa
:04033000cc030000fa
:020000040000fa
:04033400cc030000f6
:020000040000fa
:04033800cc030000f2
:020000040000fa
:04033c00cc030000ee
:020000040000fa
:04034000cc030000ea
:020000040000fa
:04034400cc030000e6
:020000040000fa
:04034800cc030000e2
:020000040000fa
:100400006f8020000e7f22000e0188000000000097
:10041000000020000000e000020032000001200087
:100420002002880014000700dd0007000000e00043
:1004300003003a00e0ce2000010020000200370057
:100440000000200001002000810f70000100320038
:1004500014000700000020000000e000020032004d
:100460000000020000000000180902000000000067
:100470000040da000000fe004440a90060102000a7
:100480000000e0000300320000002000a00188000e
:100490004440a800000006008a1f78008b1f7800e7
:1004a0000000060091018800800478000000eb0045
:1004b0001a003700e284440032a0b4009905ba0063
:1004c000e284440032a0b4009906ba00e2844400f9
:1004d00032a0b4000006eb00476fde00fd07b2005b
:1004e000636ce10003003a00ebff07000000eb0043
:1004f0000a003700606ce10004003a00005deb0088
:100500008b05e900fdff3e00040037006168e10053
:10051000010032000086eb000b00070019c7ba008b
:100520001905ba000e04e00003003a000a00e000da
:10053000e0ff3a0000000600fe07b2009e018800be
:100540008a047800f5ff3700395dba008b05e900b1
:100550000c003200295dba008b05e900080032006a
:100560000c00e00003003a00e284440032a0b40032
:10057000f5ff370019ddba008b05e900faff3a00f4
:100580008904e800e184440032a0b40000000600c1
:100590003600f800809fbe00829fbe00849fbe0090
:1005a000869fbe003400f80000002000a0018800f3
:1005b0000000fa00204080000000e8002040880091
:1005c0002140800000408000808f50000f003500e7
:1005d000cb22a900cb02a800200320006f01070056
:1005e000e13d2800603e28005d01070000fa200080
:1005f0006a010700f13e2800803f280058010700eb
:1006000000fa200065010700f3ff3700800c20008e
:100610006201070011402800b04028005001070087
:10062000cb22a90000fa20005c010700414128000c
:10063000d04128004a01070080bb20005701070075
:100640008420a900cb22a8000080fa003400f90021
:100650004f03be004f02be004f01be004f00be0060
:100660003600f900004006003600f800809fbe000a
:10067000829fbe00849fbe00869fbe003400f800ab
:1006800000002000a00188000000fa001040800057
:100690000000e8001040880010408000e90f500082
:1006a00002003a0010002000104088001040800036
:1006b000e10f500003003a0061422800f042280098
:1006c0002701070010408000e20f500003003a00ad
:1006d00081432800f04228002101070010408000db
:1006e000e30f500003003a0011442800f0422800b4
:1006f0001b01070010408000e40f500003003a0087
:10070000a1442800f0422800150107001040800095
:10071000e50f500003003a0031452800f042280060
:100720000f01070010408000e60f500003003a0060
:10073000c1452800f0422800090107001040800050
:10074000e70f500003003a0051462800f04228000d
:100750000301070010408000e80f500003003a003a
:10076000e1462800f0422800fd000700803e2000fe
:100770000a01070084a0a9000080fa003400f900f3
:100780004f03be004f02be004f01be004f00be002f
:100790003600f900004006000040da000000fe00cc
:1007a0000000050080007800010178003104e000bd
:0c07b000fdff3a000000510000000600b0
:020000040000fa
:1007bc005265000061630000686500006400000081
:1007cc004d61000078460000617500006c740000fb
:1007dc000057000069720000696e0000672000007d
:1007ec002000000043680000656300006b200000df
:1007fc002020000000440000455400004543000048
:10080c005445000044200000004600004155000003
:10081c004c54000020200000200000004452000036
:10082c00563800003832000035200000005200001d
:10083c006573000065740000696e000067000000bd
:10084c00313a0000315f00007374000065700000e5
:10085c000053000045540000544900004e4700006e
:10086c0020000000312f0000325f00007374000084
:10087c006570000000510000747200005f7300008e
:10088c00746500007000000038740000685f0000a0
:10089c0073740000657000000031000036740000b5
:1008ac0068530000746500007000000033320000d3
:1008bc006e64000053740000657000000046000078
:1008cc006e63000079530000746500007000000036
:1008dc00414c00004c5f0000537400006570000038
:1008ec0000000000525500004e4e0000494e000022
:1008fc004720000000460000756c00006c5300009f
:10090c007465000070000000464900004e4900006c
:10091c005348000045440000003100003a3200000a
:10092c005f5300007465000070000000313a000055
:10093c00345f00005374000065700000003100004b
:10094c003a3800005f53000074650000700000002e
:10095c0031360000746800005374000065700000ac
:10096c0000330000326e0000645300007465000018
:10097c0070000000466e00006379000053740000a4
:10098c006570000000480000616c000066530000b8
:10099c0074650000700000003474000068200000d2
:1009ac00537400006570000000380000746800008b
:0c09bc0020530000746500007000000073
:020000040000fa
:1009c8000000fa00213a8000f08f2f0000806000bc
:1009d800203a8800f0ff29006019880030002000c4
:1009e80040168800c9e2a900c9c2a900c9a2a90085
:1009f800c982a900c962a900c942a900c922a900df
:100a0800c902a900c882a8006116800000e02f0072
:100a180001007000601688000421ef000021ef003b
:100a2800900f20001008880021088000f0fc2f009b
:100a3800008060000050a000200888008460a900a1
:100a48009460a90005e1a8007134800000fe2f0021
:100a5800008060000020a000703488001021ef00a2
:100a68000621ef000080eb00600888004221ef00bb
:100a780020082000100a880021058000f0f82f00c7
:100a8800008060000060a000200588008420a90084
:100a98009420a80011e1a8000a21ef00e0ff2f0030
:100aa8007008880091088000f0fc2f00008060002a
:100ab800900888001221a90012c1a90013e1a8001a
:100ac80046e1a900310a8000f0f92f00008060009b
:100ad800300a8800310a800080ff2f000080600003
:100ae8003000b300300a880084a0a90094a0a800b0
:100af800113a8000f00b20000081600060042000a3
:100b0800710520002374200080497800814978000d
:100b18008249780071348000f00f2e0080806000d8
:100b2800005020000100700070348800103a8000e6
:100b3800000178000260a000600420007105200018
:100b48002374200080497800814978008249780020
:100b58000080fa00000006000400fa00000f780088
:100b6800110798008040eb000040eb0004030700e9
:100b78001e0078004503070011c0b3000040eb00d9
:100b8800ff0207001e009000400307000080fa00e3
:100b9800000006000400fa00100798000021ef008a
:100ba8008460a9000000eb00000f78000700370000
:100bb8000000000020048000680060000000e000e1
:100bc800fcff32008460a9001e0fe8001e009000a0
:100bd8009e007800808f5000f5ff35000080fa00f5
:100be800000006000200fa00000f7800030037003a
:100bf8000300090000000000000000001e0078004b
:100c080000f0a7000000ea000000ea004f00de0044
:100c1800004078001e0fe9000004e000f4ff3a00ed
:100c28000080fa00000006000200fa00004f780079
:100c38001e407800e74f500023003e001e80fb0056
:100c48004200de0000407800614060000080fb0048
:100c5800610060004d00dd005116800001d0a10048
:100c680001007000501688001e80fb000000d100b3
:100c780000407800614060006140600061406000b1
:100c88000080fb00610060004c00dd005116800010
:100c980001c0a10001007000501688009e40780035
:100ca80061c0600061406000614060000080fb003e
:100cb800610060004b00dd005116800001b0a1000a
:100cc80001007000501688000080fa00000006003d
:100cd8000800fa00100798002107980032079800ca
:100ce8001e00900000407800614060000080fb001a
:100cf8004f00dd005116800001f0a10001007000d6
:100d0800501688000040eb00c7ff07000000eb000a
:100d1800000f780007003700cbc2a8003e00900003
:100d2800b0ff0700cbc2a9003e009000adff07004e
:100d38001e0fe8002e0090009e007800808f500063
:100d4800f5ff35000080fa00000006000800fa00f0
:100d58001007980021079800320798001e0090009d
:100d680000407800614060000080fb004f00dd001b
:100d78005116800001f0a100010070005016880093
:100d880010c0b300a8ff07000000eb00000f7800b8
:100d980007003700cbc2a8003e00900091ff070073
:100da800cbc2a9003e0090008eff07001e0fe8008e
:100db8002e0090009e007800808f5000f5ff3500cf
:100dc8000080fa00000006000800fa0010079800ea
:100dd80021079800320798001e0090000040780014
:100de800614060000080fb004f00dd00511680006c
:100df80001f0a100010070005016880020c0b30067
:100e080089ff07000000eb00000f7800070037009b
:100e1800cbc2a8003e00900072ff0700cbc2a90019
:100e28003e0090006fff07001e0fe8002e009000a4
:100e38009e007800808f5000f5ff35000080fa0092
:100e4800000006000800fa00100798002107980023
:100e5800320798001e009000004078006140600052
:100e68000080fb004f00dd005116800001f0a1005a
:100e7800010070005016880030c0b3006aff0700f8
:100e88000000eb00000f780007003700cbc2a80075
:100e98003e00900053ff0700cbc2a9003e0090001f
:100ea80050ff07001e0fe8002e0090009e007800fb
:100eb800808f5000f5ff35000080fa000000060022
:100ec8000800fa00100798002107980032079800d8
:100ed8001e00900000407800614060000080fb0028
:100ee8004f00dd005116800001f0a10001007000e4
:100ef8005016880040c0b3004bff07000000eb000d
:100f0800000f780007003700cbc2a8003e00900011
:100f180034ff0700cbc2a9003e00900031ff070054
:100f28001e0fe8002e0090009e007800808f500071
:100f3800f5ff35000080fa00000006000800fa00fe
:100f48001007980021079800320798001e009000ab
:100f580000407800614060000080fb004f00dd0029
:100f68005116800001f0a1000100700050168800a1
:100f780050c0b3002cff07000000eb00000f780002
:100f880007003700cbc2a8003e00900015ff0700fd
:100f9800cbc2a9003e00900012ff07001e0fe80018
:100fa8002e0090009e007800808f5000f5ff3500dd
:100fb8000080fa00000006001c00fa00889fbe00ae
:100fc8008a9fbe006007980074079800050f980074
:100fd800160f9800270f980061579800420f980045
:100fe800530f98006e009000004078006140600048
:100ff8000080fb004f00dd005116800001f0a100c9
:1010080001007000501688006000b8006011b80038
:10101800009fbe000297be00100020004007980005
:10102800beb89700510798006e509000fefe07006a
:101038005b003700cbc2a8005e009000e9fe070005
:10104800cbc2a9005e0090000080e900e5fe070021
:10105800ce0090004eb89700808f500043003900b2
:101068005e0890000000e000340034007e0090002c
:101078008e0890001e099000ae0990003e045000b2
:10108800be8458003e0559009e8559006e00b10087
:10109800f0ff2f00f1ff2f000001be000002440006
:1010a80081824c0002034d0083834d009eb8970057
:1010b8005e009000808050005e089000000178007b
:1010c800110009008200d800800078004e009000ce
:1010d8000088b90000007800cf80de006109b900ff
:1010e8000020e10001a8e10002b0e10003b8e1003e
:1010f80009003c00de0090001eb89700808f500069
:1011080005003c00de0090005e0890000080400072
:101118005007980013003700de0090002eb89700a3
:10112800808f50000e003400de0090004e089000c2
:1011380000805000500798000a003700de00900039
:101148002eb89700808f500006003400de00900013
:101158004e089000008050005007980001003700aa
:101168000000000010002000400798003e02be006a
:101178002e03be0010002000010020006011b800fe
:10118800001f4200019f4a00021f4b00038f4b00c3
:101198006e00b1004e0090000000e8004007980083
:1011a8007e0490008e0c90001e0d9000ae0d9000f5
:1011b800f0ff2f00f1ff2f000001be0000024400e5
:1011c80081824c0002034d0083834d003e00be0027
:1011d8002e01be000020e10001a8e10002b0e100fc
:1011e80003b8e10093ff3c00cbc2a8005e0090006a
:1011f8007cfe0700cbc2a9005e009000630050008f
:1012080078fe07004f05be004f04be000080fa00bc
:10121800000006000000fa00e9fd0700fc000700d6
:101228000080fa00000006000200fa00f9ff07003b
:1012380080002000104088000000eb00000f7800bc
:101248002003200053fe070010408000e10f5000eb
:101258000d003a0081472800104828003efe07008c
:1012680082382100810c20001e00780098fe0700bb
:10127800a14828001048280037fe0700401f20001a
:1012880044fe0700da00370010408000e20f5000eb
:101298000d003a0081472800304928002efe07003b
:1012a80002e12000011920001e007800a7fe0700b7
:1012b800a14828003049280027fe0700401f2000c9
:1012c80034fe0700ca00370010408000e30f5000ca
:1012d8000d003a0081472800c04928001efe07007b
:1012e800429c2000013220001e007800b6fe070054
:1012f800a1482800c049280017fe0700401f200009
:1013080024fe0700ba00370010408000e40f5000a8
:101318000d003a0081472800504a28000efe0700b9
:1013280002642000016420001e007800c5fe07004a
:10133800a1482800504a280007fe0700401f200047
:1013480014fe0700aa00370010408000e50f500087
:101358000d003a0081472800e04a2800fefd0700fa
:101368000232200001c820001e007800d4fe0700c9
:10137800a1482800e04a2800f7fd0700401f200088
:1013880004fe07009a00370010408000e60f500066
:101398000d003a0081472800704b2800eefd070039
:1013a800c2122000019021001e007800e3fe070011
:1013b800a1482800704b2800e7fd0700401f2000c7
:1013c800f4fd07008a00370010408000e70f500046
:1013d8001a003a0081472800004c2800defd07006b
:1013e800c0122000801f780010012000801f7800a4
:1013f800a00f2000801f780000042000801f7800c4
:10140800230020001200200051c0b30004d02700a0
:10141800050020006033b8001e007800e6fe0700d3
:10142800e8875700a1482800004c2800cafd07009b
:10143800401f2000d7fd07006d00370081472800b6
:1014480010482800c4fd070082382100810c2000c4
:101458001e0078001efe0700a1482800104828003a
:10146800bdfd0700401f2000cafd07008147280076
:10147800904c2800b8fd07001e00780000f0a70077
:101488000000ea000000e9004f00de0002e1200051
:10149800011920002dfe0700a1482800904c2800c3
:1014a800adfd0700401f2000bafd07008147280056
:1014b800204d2800a8fd0700429c20000132200092
:1014c8001e00780040fe0700a1482800204d280093
:1014d800a1fd0700401f2000aefd0700814728003e
:1014e800b04d28009cfd07001e00780000f0a70002
:1014f8000000ea000000e9004f00de00026420005e
:10150800016420004ffe0700a1482800b04d2800c4
:1015180091fd0700401f20009efd0700814728001d
:10152800e04a28008cfd07000232200001c8200094
:101538001e00780062fe0700a1482800e04a280043
:1015480085fd0700401f200092fd07008147280005
:10155800704b280080fd07001e00780000f0a700ef
:101568000000ea000000e9004f00de00c21220007f
:101578000190210071fe0700a1482800704b280047
:1015880075fd0700401f200082fd070081472800e5
:10159800004c280070fd0700c0122000801f780052
:1015a80090012000801f7800a00f2000801f780085
:1015b80000022000801f7800530020001200200045
:1015c80051c0b30004982800050020006033b8001b
:1015d8001e00780078fe0700e8875700a148280019
:1015e800004c28005cfd0700401f200069fd070033
:1015f8001e00780000f0a7000000ea00000fe900d4
:101608001e0078004f00de00000f78000eff370044
:101618000000fa0017e2a900d0092000a0108800f5
:1016280017e2a8008a40a9002c0007008040eb00c0
:101638000040eb00520007000080fa00000006009e
:101648000200fa00004f78001602a800000000000f
:10165800b0108000610060000000e000fcff3a006c
:101668008a40a900c00720009010880000000000f0
:1016780050048000640060000000e000fcff3200bd
:101688008a40a9001222ef000000000050048000e8
:10169800640060000000e000fcff32008a40a900fe
:1016a8001e80fb009010880000000000500480009d
:1016b800640060000000e000fcff32001642a80051
:1016c80000000000b0108000640060000000e0002e
:1016d800fcff3a000080fa00000006000000fa0053
:1016e800a00f20002bfd070080c3b300d4ff070024
:1016f8001000200027fd070090c3b300d0ff0700ab
:101708001000200023fd070040c1b300ccff0700f4
:10171800100020001ffd070000c7b300c8ff070026
:10172800100020001bfd070060c5b300c4ff0700c0
:101738001000200017fd0700c0c6b300c0ff070057
:10174800200d200013fd070080c3b300bcff070075
:10175800100020000ffd0700c0c0b300b8ff07004d
:10176800100020000bfd070010c0b300b4ff0700f5
:101778004001200007fd07000080fa000000060075
:101788000400fa0020479800314798000000eb0059
:10179800000f780020c0b300a9ff07001000200048
:1017a800fcfc07000500370040c1b300a4ff070098
:1017b80010002000f7fc07001e0fe8002e409000e4
:1017c8000001fb003e4090008000fb0080022000ea
:1017d8000088b90000007800000041009e0f50000a
:1017e800f1ff3c000080fa00000006000200fa0049
:1017f800004f78001602a80000000000b01080001a
:10180800610060000000e000fcff3a008a40a90087
:10181800c0072000901088000000000050048000dd
:10182800640060000000e000fcff32008a40a9006c
:101838000004200090108800000000005004800080
:10184800640060000000e000fcff32008a40a9004c
:101858001e00fb009010880000000000500480006b
:10186800640060000000e000fcff32001642a8009f
:1018780000000000b0108000640060000000e0007c
:10188800fcff3a000080fa00000006000600fa009b
:10189800200798002e009000c0fb07001007980052
:1018a8001602a80000000000b0108000610060006f
:1018b8000000e000fcff3a008a40a900c0072000b1
:1018c8009010880000000000500480006400600050
:1018d8000000e000fcff32008a40a9000000eb0095
:1018e800000f780015003700000c200090108800c9
:1018f8000000000050048000640060000000e00068
:10190800fcff32008a40a9001e007800ae0090005b
:1019180000804000104078000000fb009010880014
:101928000000000050048000640060000000e00037
:10193800fcff32008a40a9001e0fe8001e0090003c
:101948000000e9009e0f5000e7ff3c000004200063
:1019580090108800000000005004800064006000bf
:101968000000e000fcff32008a40a9001e00900041
:101978000000e900ae0090000080400010407800b0
:101988000000fb0090108800000000005004800058
:10199800640060000000e000fcff32008a40a900fb
:1019a8001642a80000000000b0108000640060002b
:1019b8000000e000fcff3a000080fa00000006008a
:1019c8000000fa0080c1b3001dff07000080fa0084
:0419d8000000060005
:020000040000fa
:1019dc0000080000040000000200000002000100ea
:1019ec0000000000040800000200000000000000dd
:0419fc0000000000e7
:020000040000fa
:020000040001f9
:0457f8000ff90000a5
:020000040000fa
:020000040001f9
:0457fc007f3f0000eb
:00000001FF
