:020000040000fa
:080000000002040000000000f2
:020000040000fa
:04000800c80200002a
:020000040000fa
:04000c00c802000026
:020000040000fa
:04001000c802000022
:020000040000fa
:04001400c80200001e
:020000040000fa
:04001800c80200001a
:020000040000fa
:04001c00c802000016
:020000040000fa
:04002000c802000012
:020000040000fa
:04002400c80200000e
:020000040000fa
:04002800c80200000a
:020000040000fa
:04002c00c802000006
:020000040000fa
:04003000c802000002
:020000040000fa
:04003400c8020000fe
:020000040000fa
:04003800c8020000fa
:020000040000fa
:04003c00c8020000f6
:020000040000fa
:04004000c8020000f2
:020000040000fa
:04004400c8020000ee
:020000040000fa
:04004800c8020000ea
:020000040000fa
:04004c00c8020000e6
:020000040000fa
:04005000c8020000e2
:020000040000fa
:04005400c8020000de
:020000040000fa
:04005800c8020000da
:020000040000fa
:04005c00c8020000d6
:020000040000fa
:04006000c8020000d2
:020000040000fa
:04006400c8020000ce
:020000040000fa
:04006800c8020000ca
:020000040000fa
:04006c00c8020000c6
:020000040000fa
:04007000c8020000c2
:020000040000fa
:04007400c8020000be
:020000040000fa
:04007800c8020000ba
:020000040000fa
:04007c00c8020000b6
:020000040000fa
:04008000c8020000b2
:020000040000fa
:04008400c8020000ae
:020000040000fa
:04008800c8020000aa
:020000040000fa
:04008c00c8020000a6
:020000040000fa
:04009000c8020000a2
:020000040000fa
:04009400c80200009e
:020000040000fa
:04009800c80200009a
:020000040000fa
:04009c00c802000096
:020000040000fa
:0400a000c802000092
:020000040000fa
:0400a400c80200008e
:020000040000fa
:0400a800c80200008a
:020000040000fa
:0400ac00c802000086
:020000040000fa
:0400b000c802000082
:020000040000fa
:0400b400c80200007e
:020000040000fa
:0400b800c80200007a
:020000040000fa
:0400bc00c802000076
:020000040000fa
:0400c000c802000072
:020000040000fa
:0400c400c80200006e
:020000040000fa
:0400c800c80200006a
:020000040000fa
:0400cc00c802000066
:020000040000fa
:0400d000c802000062
:020000040000fa
:0400d400c80200005e
:020000040000fa
:0400d800c80200005a
:020000040000fa
:0400dc00c802000056
:020000040000fa
:0400e000c802000052
:020000040000fa
:0400e400c80200004e
:020000040000fa
:0400e800c80200004a
:020000040000fa
:0400ec00c802000046
:020000040000fa
:0400f000c802000042
:020000040000fa
:0400f400c80200003e
:020000040000fa
:0400f800c80200003a
:020000040000fa
:0400fc00c802000036
:020000040000fa
:04010000c802000031
:020000040000fa
:04010400c80200002d
:020000040000fa
:04010800c802000029
:020000040000fa
:04010c00c802000025
:020000040000fa
:04011000c802000021
:020000040000fa
:04011400c80200001d
:020000040000fa
:04011800c802000019
:020000040000fa
:04011c00c802000015
:020000040000fa
:04012000c802000011
:020000040000fa
:04012400c80200000d
:020000040000fa
:04012800c802000009
:020000040000fa
:04012c00c802000005
:020000040000fa
:04013000c802000001
:020000040000fa
:04013400c8020000fd
:020000040000fa
:04013800c8020000f9
:020000040000fa
:04013c00c8020000f5
:020000040000fa
:04014000c8020000f1
:020000040000fa
:04014400c8020000ed
:020000040000fa
:04014800c8020000e9
:020000040000fa
:04020800c802000028
:020000040000fa
:04020c00c802000024
:020000040000fa
:04021000c802000020
:020000040000fa
:04021400c80200001c
:020000040000fa
:04021800c802000018
:020000040000fa
:04021c00c802000014
:020000040000fa
:04022000c802000010
:020000040000fa
:04022400c80200000c
:020000040000fa
:04022800c802000008
:020000040000fa
:04022c00c802000004
:020000040000fa
:04023000c802000000
:020000040000fa
:04023400c8020000fc
:020000040000fa
:04023800c8020000f8
:020000040000fa
:04023c00c8020000f4
:020000040000fa
:04024000c8020000f0
:020000040000fa
:04024400c8020000ec
:020000040000fa
:04024800c8020000e8
:020000040000fa
:04024c00c8020000e4
:020000040000fa
:04025000c8020000e0
:020000040000fa
:04025400c8020000dc
:020000040000fa
:04025800c8020000d8
:020000040000fa
:04025c00c8020000d4
:020000040000fa
:04026000c8020000d0
:020000040000fa
:04026400c8020000cc
:020000040000fa
:04026800c8020000c8
:020000040000fa
:04026c00c8020000c4
:020000040000fa
:04027000c8020000c0
:020000040000fa
:04027400c8020000bc
:020000040000fa
:04027800c8020000b8
:020000040000fa
:04027c00c8020000b4
:020000040000fa
:04028000c8020000b0
:020000040000fa
:04028400c8020000ac
:020000040000fa
:04028800c8020000a8
:020000040000fa
:04028c00c8020000a4
:020000040000fa
:04029000c8020000a0
:020000040000fa
:04029400c80200009c
:020000040000fa
:04029800c802000098
:020000040000fa
:04029c00c802000094
:020000040000fa
:0402a000c802000090
:020000040000fa
:0402a400c80200008c
:020000040000fa
:0402a800c802000088
:020000040000fa
:0402ac00c802000084
:020000040000fa
:0402b000c802000080
:020000040000fa
:0402b400c80200007c
:020000040000fa
:0402b800c802000078
:020000040000fa
:0402bc00c802000074
:020000040000fa
:0402c000c802000070
:020000040000fa
:0402c400c80200006c
:020000040000fa
:0402c800c802000068
:020000040000fa
:0402cc00c802000064
:020000040000fa
:0402d000c802000060
:020000040000fa
:0402d400c80200005c
:020000040000fa
:0402d800c802000058
:020000040000fa
:0402dc00c802000054
:020000040000fa
:0402e000c802000050
:020000040000fa
:0402e400c80200004c
:020000040000fa
:0402e800c802000048
:020000040000fa
:0402ec00c802000044
:020000040000fa
:0402f000c802000040
:020000040000fa
:0402f400c80200003c
:020000040000fa
:0402f800c802000038
:020000040000fa
:0402fc00c802000034
:020000040000fa
:04030000c80200002f
:020000040000fa
:04030400c80200002b
:020000040000fa
:04030800c802000027
:020000040000fa
:04030c00c802000023
:020000040000fa
:04031000c80200001f
:020000040000fa
:04031400c80200001b
:020000040000fa
:04031800c802000017
:020000040000fa
:04031c00c802000013
:020000040000fa
:04032000c80200000f
:020000040000fa
:04032400c80200000b
:020000040000fa
:04032800c802000007
:020000040000fa
:04032c00c802000003
:020000040000fa
:04033000c8020000ff
:020000040000fa
:04033400c8020000fb
:020000040000fa
:04033800c8020000f7
:020000040000fa
:04033c00c8020000f3
:020000040000fa
:04034000c8020000ef
:020000040000fa
:04034400c8020000eb
:020000040000fa
:04034800c8020000e7
:020000040000fa
:100400004f8020000e7f22000e01880000000000b7
:10041000000020000000e000020032000001200087
:1004200020028800140007005b0007000000e000c5
:1004300003003a0060552000010020000200370050
:100440000000200001002000810f70000100320038
:1004500014000700000020000000e000020032004d
:1004600000000200000000000a0502000000000079
:100470000040da000000fe004440a9000000200017
:100480000000e0000300320000002000a00188000e
:100490004440a800000006008a1f78008b1f7800e7
:1004a0000000060091018800800478000000eb0045
:1004b0001a003700e284440032a0b4009905ba0063
:1004c000e284440032a0b4009906ba00e2844400f9
:1004d00032a0b4000006eb00476fde00fd07b2005b
:1004e000636ce10003003a00ebff07000000eb0043
:1004f0000a003700606ce10004003a00005deb0088
:100500008b05e900fdff3e00040037006168e10053
:10051000010032000086eb000b00070019c7ba008b
:100520001905ba000e04e00003003a000a00e000da
:10053000e0ff3a0000000600fe07b2009e018800be
:100540008a047800f5ff3700395dba008b05e900b1
:100550000c003200295dba008b05e900080032006a
:100560000c00e00003003a00e284440032a0b40032
:10057000f5ff370019ddba008b05e900faff3a00f4
:100580008904e800e184440032a0b40000000600c1
:0c0590000040da000000fe000000050042
:020000040000fa
:10059c000000fa00213a8000f08f2f0000806000ec
:1005ac00203a8800f0ff2900601988000421ef0030
:1005bc000021ef00900f2000100888002108800017
:1005cc00f0fc2f00008060000050a0002008880084
:1005dc008460a9009460a90005e1a8003000200007
:1005ec00401688000080eb00601688000080fa003e
:1005fc00000006000400fa00100798000021ef002c
:10060c008460a9000000eb00000f780007003700a1
:10061c000000000020048000680060000000e00082
:10062c00fcff32008460a9001e0fe8001e00900041
:10063c009e007800808f5000f5ff35000080fa0096
:10064c00000006000200fa00004f78001e407800ff
:10065c00e74f500023003e001e80fb004200de00ee
:10066c0000407800614060000080fb006100600089
:10067c004d00dd005116800001d0a100010070007a
:10068c00501688001e80fb000000d100004078004e
:10069c006140600061406000614060000080fb00d0
:1006ac00610060004c00dd005116800001c0a1000b
:1006bc0001007000501688009e40780061c06000f8
:1006cc0061406000614060000080fb0061006000e0
:1006dc004b00dd005116800001b0a100010070003c
:1006ec00501688000080fa00000006000600fa0090
:1006fc0010079800210798000040eb00d1ff07007d
:10070c000000eb00000f780007003700cbc2a800f8
:10071c002e009000ab000700cbc2a9002e00900069
:10072c00a80007001e0fe8001e0090009e00780035
:10073c00808f5000f5ff35000080fa0000000600a5
:10074c000600fa00100798002107980010c0b300ab
:10075c00bcff07000000eb00000f7800070037001b
:10076c00cbc2a8002e00900096000700cbc2a900b7
:10077c002e009000930007001e0fe8001e00900052
:10078c009e007800808f5000f5ff35000080fa0045
:10079c00000006000600fa001007980021079800d8
:1007ac0020c0b300a7ff07000000eb00000f78008b
:1007bc0007003700cbc2a8002e0090008100070074
:1007cc00cbc2a9002e0090007e0007001e0fe8008f
:1007dc001e0090009e007800808f5000f5ff3500c1
:1007ec000080fa00000006000600fa0010079800ce
:1007fc002107980030c0b30092ff07000000eb0007
:10080c00000f780007003700cbc2a8002e00900024
:10081c006c000700cbc2a9002e00900069000700f5
:10082c001e0fe8001e0090009e007800808f500084
:10083c00f5ff35000080fa00000006000600fa0003
:10084c00100798002107980040c0b3007dff0700f7
:10085c000000eb00000f780007003700cbc2a800a7
:10086c002e00900057000700cbc2a9002e0090006c
:10087c00540007001e0fe8001e0090009e00780038
:10088c00808f5000f5ff35000080fa000000060054
:10089c000600fa00100798002107980050c0b3001a
:1008ac0068ff07000000eb00000f7800070037001e
:1008bc00cbc2a8002e00900042000700cbc2a900ba
:1008cc002e0090003f0007001e0fe8001e00900055
:1008dc009e007800808f5000f5ff35000080fa00f4
:1008ec00000006000e00fa002007980061479800ef
:1008fc0042079800530798000000eb00000f7800a7
:10090c0001408000110798006e4090004dff0700d9
:10091c0026003700cbc2a8001e009000290007005b
:10092c00cbc2a9001e0090000000e90025000700c2
:10093c002e0090001e0050006007980002408000be
:10094c001e009000000151005e00900080017800b4
:10095c00110009000301d800ee009000808f5000b8
:10096c0009003c00004080009e009000808f5000e9
:10097c0005003c009e0090005e009000008040004e
:10098c001007980008003700104080009e0090006f
:10099c00808f5000040034009e0090004e009000a8
:1009ac0000805000100798001e0fe8002e009000e9
:1009bc009e007800808f5000d6ff35000080fa0032
:1009cc00000006000200fa00000f78000300370058
:1009dc000300090000000000000000001e00780069
:1009ec0000f0a7000000ea000000ea004f00de0063
:1009fc00004078001e0fe9000004e000f4ff3a000c
:100a0c000080fa00000006000200fa00e0fe070079
:100a1c000000eb00000f780020032000f5fe07001b
:100a2c0010002000e7ff070020002000e5ff070072
:100a3c0050002000e3ff0700a0002000e1ff0700aa
:100a4c0000352c00dfff0700a0002000e9fe0700a6
:100a5c00501680000080ea004f00de000040780055
:100a6c000080fb004f00dd005116800001f0a1005a
:100a7c00010070005016880020032000ddfe0700e6
:100a8c00a30020005200200051c0b30000902100b0
:100a9c0094ff0700401f2000d6fe0700ecff370034
:020000040000fa
:100aac00000800000400000002000000c40932002d
:080abc00000000000000000032
:020000040000fa
:020000040001f9
:0457f8000ff90000a5
:020000040000fa
:020000040001f9
:0457fc007f3f0000eb
:00000001FF
