:020000040000fa
:080000000002040000000000f2
:020000040000fa
:04000800e40300000d
:020000040000fa
:04000c00e403000009
:020000040000fa
:04001000e403000005
:020000040000fa
:04001400e403000001
:020000040000fa
:04001800e4030000fd
:020000040000fa
:04001c00e4030000f9
:020000040000fa
:04002000e4030000f5
:020000040000fa
:04002400e4030000f1
:020000040000fa
:04002800e4030000ed
:020000040000fa
:04002c00c802000006
:020000040000fa
:04003000e4030000e5
:020000040000fa
:04003400e4030000e1
:020000040000fa
:04003800e4030000dd
:020000040000fa
:04003c004803000075
:020000040000fa
:04004000e4030000d5
:020000040000fa
:04004400e4030000d1
:020000040000fa
:04004800340300007d
:020000040000fa
:04004c00e4030000c9
:020000040000fa
:04005000e4030000c5
:020000040000fa
:04005400e4030000c1
:020000040000fa
:04005800e4030000bd
:020000040000fa
:04005c00e4030000b9
:020000040000fa
:04006000e4030000b5
:020000040000fa
:04006400e4030000b1
:020000040000fa
:04006800e4030000ad
:020000040000fa
:04006c00e4030000a9
:020000040000fa
:04007000e4030000a5
:020000040000fa
:04007400e4030000a1
:020000040000fa
:04007800e40300009d
:020000040000fa
:04007c00e403000099
:020000040000fa
:04008000e403000095
:020000040000fa
:04008400e403000091
:020000040000fa
:04008800e40300008d
:020000040000fa
:04008c00e403000089
:020000040000fa
:04009000e403000085
:020000040000fa
:04009400e403000081
:020000040000fa
:04009800e40300007d
:020000040000fa
:04009c00e403000079
:020000040000fa
:0400a000e403000075
:020000040000fa
:0400a400e403000071
:020000040000fa
:0400a800e40300006d
:020000040000fa
:0400ac00e403000069
:020000040000fa
:0400b000e403000065
:020000040000fa
:0400b400e403000061
:020000040000fa
:0400b800e40300005d
:020000040000fa
:0400bc00e403000059
:020000040000fa
:0400c000e403000055
:020000040000fa
:0400c400e403000051
:020000040000fa
:0400c800e40300004d
:020000040000fa
:0400cc00e403000049
:020000040000fa
:0400d000e403000045
:020000040000fa
:0400d400e403000041
:020000040000fa
:0400d800e40300003d
:020000040000fa
:0400dc00e403000039
:020000040000fa
:0400e000e403000035
:020000040000fa
:0400e400e403000031
:020000040000fa
:0400e800e40300002d
:020000040000fa
:0400ec00e403000029
:020000040000fa
:0400f000e403000025
:020000040000fa
:0400f400e403000021
:020000040000fa
:0400f800e40300001d
:020000040000fa
:0400fc00e403000019
:020000040000fa
:04010000e403000014
:020000040000fa
:04010400e403000010
:020000040000fa
:04010800e40300000c
:020000040000fa
:04010c00e403000008
:020000040000fa
:04011000e403000004
:020000040000fa
:04011400e403000000
:020000040000fa
:04011800e4030000fc
:020000040000fa
:04011c00e4030000f8
:020000040000fa
:04012000e4030000f4
:020000040000fa
:04012400e4030000f0
:020000040000fa
:04012800e4030000ec
:020000040000fa
:04012c00e4030000e8
:020000040000fa
:04013000e4030000e4
:020000040000fa
:04013400e4030000e0
:020000040000fa
:04013800e4030000dc
:020000040000fa
:04013c00e4030000d8
:020000040000fa
:04014000e4030000d4
:020000040000fa
:04014400e4030000d0
:020000040000fa
:04014800e4030000cc
:020000040000fa
:04020800e40300000b
:020000040000fa
:04020c00e403000007
:020000040000fa
:04021000e403000003
:020000040000fa
:04021400e4030000ff
:020000040000fa
:04021800e4030000fb
:020000040000fa
:04021c00e4030000f7
:020000040000fa
:04022000e4030000f3
:020000040000fa
:04022400e4030000ef
:020000040000fa
:04022800e4030000eb
:020000040000fa
:04022c00c802000004
:020000040000fa
:04023000e4030000e3
:020000040000fa
:04023400e4030000df
:020000040000fa
:04023800e4030000db
:020000040000fa
:04023c004803000073
:020000040000fa
:04024000e4030000d3
:020000040000fa
:04024400e4030000cf
:020000040000fa
:04024800340300007b
:020000040000fa
:04024c00e4030000c7
:020000040000fa
:04025000e4030000c3
:020000040000fa
:04025400e4030000bf
:020000040000fa
:04025800e4030000bb
:020000040000fa
:04025c00e4030000b7
:020000040000fa
:04026000e4030000b3
:020000040000fa
:04026400e4030000af
:020000040000fa
:04026800e4030000ab
:020000040000fa
:04026c00e4030000a7
:020000040000fa
:04027000e4030000a3
:020000040000fa
:04027400e40300009f
:020000040000fa
:04027800e40300009b
:020000040000fa
:04027c00e403000097
:020000040000fa
:04028000e403000093
:020000040000fa
:04028400e40300008f
:020000040000fa
:04028800e40300008b
:020000040000fa
:04028c00e403000087
:020000040000fa
:04029000e403000083
:020000040000fa
:04029400e40300007f
:020000040000fa
:04029800e40300007b
:020000040000fa
:04029c00e403000077
:020000040000fa
:0402a000e403000073
:020000040000fa
:0402a400e40300006f
:020000040000fa
:0402a800e40300006b
:020000040000fa
:0402ac00e403000067
:020000040000fa
:0402b000e403000063
:020000040000fa
:0402b400e40300005f
:020000040000fa
:0402b800e40300005b
:020000040000fa
:0402bc00e403000057
:020000040000fa
:0402c000e403000053
:020000040000fa
:0402c400e40300004f
:020000040000fa
:0402c800e40300004b
:020000040000fa
:0402cc00e403000047
:020000040000fa
:0402d000e403000043
:020000040000fa
:0402d400e40300003f
:020000040000fa
:0402d800e40300003b
:020000040000fa
:0402dc00e403000037
:020000040000fa
:0402e000e403000033
:020000040000fa
:0402e400e40300002f
:020000040000fa
:0402e800e40300002b
:020000040000fa
:0402ec00e403000027
:020000040000fa
:0402f000e403000023
:020000040000fa
:0402f400e40300001f
:020000040000fa
:0402f800e40300001b
:020000040000fa
:0402fc00e403000017
:020000040000fa
:04030000e403000012
:020000040000fa
:04030400e40300000e
:020000040000fa
:04030800e40300000a
:020000040000fa
:04030c00e403000006
:020000040000fa
:04031000e403000002
:020000040000fa
:04031400e4030000fe
:020000040000fa
:04031800e4030000fa
:020000040000fa
:04031c00e4030000f6
:020000040000fa
:04032000e4030000f2
:020000040000fa
:04032400e4030000ee
:020000040000fa
:04032800e4030000ea
:020000040000fa
:04032c00e4030000e6
:020000040000fa
:04033000e4030000e2
:020000040000fa
:04033400e4030000de
:020000040000fa
:04033800e4030000da
:020000040000fa
:04033c00e4030000d6
:020000040000fa
:04034000e4030000d2
:020000040000fa
:04034400e4030000ce
:020000040000fa
:04034800e4030000ca
:020000040000fa
:10040000cf8020000e7f22000e0188000000000037
:10041000000020000000e000020032000001200087
:100420002002880014000700e90007000000e00037
:1004300003003a00c0c12000010020000200370084
:100440000000200001002000810f70000100320038
:1004500014000700000020000000e000020032004d
:10046000000002000000000014060200000000006e
:100470000040da000000fe004440a90040102000c7
:100480000000e0000300320000002000a00188000e
:100490004440a800000006008a1f78008b1f7800e7
:1004a0000000060091018800800478000000eb0045
:1004b0001a003700e284440032a0b4009905ba0063
:1004c000e284440032a0b4009906ba00e2844400f9
:1004d00032a0b4000006eb00476fde00fd07b2005b
:1004e000636ce10003003a00ebff07000000eb0043
:1004f0000a003700606ce10004003a00005deb0088
:100500008b05e900fdff3e00040037006168e10053
:10051000010032000086eb000b00070019c7ba008b
:100520001905ba000e04e00003003a000a00e000da
:10053000e0ff3a0000000600fe07b2009e018800be
:100540008a047800f5ff3700395dba008b05e900b1
:100550000c003200295dba008b05e900080032006a
:100560000c00e00003003a00e284440032a0b40032
:10057000f5ff370019ddba008b05e900faff3a00f4
:100580008904e800e184440032a0b40000000600c1
:100590003600f800809fbe00829fbe00849fbe0090
:1005a000869fbe003400f80000002000a0018800f3
:1005b0000000fa00504080000000e8005040880031
:1005c0005140800040408000808f50000f00350077
:1005d000cb22a900cb02a800200320009c02070028
:1005e000214b2800a04b28008001070000fa2000c2
:1005f00097020700314c2800c04c28007b010700ff
:1006000000fa200092020700f3ff370040062000a6
:100610008f020700514d2800f04d2800730107009c
:10062000cb22a90000fa200089020700814e280091
:10063000104f28006d01070080bb200084020700d6
:100640008420a900cb22a8000080fa003400f90021
:100650004f03be004f02be004f01be004f00be0060
:100660003600f900004006003400f800881f7800ca
:1006700008002000a80188004f0478000000fa005c
:100680008500a9000080fa003400f900004006004f
:100690003600f800809fbe00829fbe00849fbe008f
:1006a000869fbe003400f80000002000a0018800f2
:1006b0000000fa0084a0a900a00020006402070046
:1006c000004080000000e8000040880000408000fa
:1006d000e90f500002003a0010002000004088009e
:1006e00000408000e10f500003003a00613f280005
:1006f000004028003d01070000408000e20f50004c
:1007000003003a008140280000402800370107001c
:1007100000408000e30f500003003a002141280010
:10072000004028003101070000408000e40f500025
:1007300003003a00e1412800004028002b01070097
:1007400000408000e50f500003003a00a14228005d
:10075000004028002501070000408000e60f5000ff
:1007600003003a0031432800004028001f01070021
:1007700000408000e70f500003003a00c14328000a
:10078000004028001901070000408000e80f5000d9
:1007900003003a00514428000040280013010700dc
:1007a000803e20002a0207000080fa003400f90091
:1007b0004f03be004f02be004f01be004f00be00ff
:1007c0003600f900004006000040da000000fe009c
:1007d0000000050080007800010178003104e0008d
:0c07e000fdff3a00000051000000060080
:020000040000fa
:1007ec00467500006c6c00005f73000074650000bf
:1007fc00700000005345000054540000494e0000a6
:10080c0047000000486100006c7400005f7300003a
:10081c0074650000700000005175000061740000e8
:10082c00657200005f7300007465000070000000ca
:10083c004569000067680000746800005f73000081
:10084c007465000070000000313600007468000010
:10085c00537400006570000000330000326e00001d
:10086c00645300007465000070000000466e0000c8
:10087c0063790000537400006570000000410000b3
:10088c004c4c00005f5300007465000070000000c9
:10089c00525500004e4e0000494e0000472000000b
:1008ac0000460000756c00006c530000746500007d
:1008bc0070000000464900004e49000053480000fb
:1008cc004544000000680000616c0000665f000099
:1008dc005374000065700000007100007561000029
:1008ec0072740000657200005f53000074650000b4
:1008fc007000000065690000676800007468000003
:10090c005f53000074650000700000003136000079
:10091c00746800005f5300007465000070000000f4
:10092c00486100006c6600005374000065700000a4
:10093c00003400007468000020530000746500004f
:10094c007000000038740000682000005374000030
:10095c00657000000000000052650000616300003b
:10096c0068650000640000004d61000078460000de
:10097c00617500006c740000005700006972000083
:10098c00696e000067200000200000004368000032
:10099c00656300006b200000202000000044000074
:1009ac00455400004543000054450000442000001d
:1009bc0000460000415500004c540000202000006f
:1009cc00200000004452000056380000383200006d
:1009dc0035200000005200006573000065740000b3
:0809ec00696e000067000000c5
:020000040000fa
:1009f4000000fa00213a8000f08f2f000080600090
:100a0400203a8800f0ff2900601988005d01070082
:100a14009702070013e1a900910880000003200059
:100a240001007000900888001221a90012c1a900d9
:100a34000a21ef000080eb007008880013e1a80091
:100a44008500a9009500a80046e1a900310a8000ac
:100a5400f0f92f0000806000300a8800310a80001d
:100a640080ff2f00008060003000b300300a88004f
:100a740084a0a90094a0a800113a8000f00b2000e3
:100a840000816000600420007105200023742000b0
:100a94008049780081497800824978007134800067
:100aa400f00f2e00808060000050200001007000d4
:100ab40070348800103a8000000178000260a000c1
:100ac4006004200071052000237420008049780010
:100ad40081497800824978000080fa00000006000d
:100ae4001000fa002007980031079800024f980080
:100af40053079800640798002e0090000040780087
:100b0400614060000080fb004f00dd005116800052
:100b140001f0a10001007000501688000000eb00f5
:100b2400000f780021408000110798000e489000c3
:100b34006b01070026003700cbc2a8001e009000fe
:100b440056010700cbc2a9001e0090000000e90076
:100b5400520107003e0090001e00500070079800ec
:100b6400224080001e009000000151006e009000a1
:100b740080017800110009000301d800fe009000f4
:100b8400808f500009003c00204080009e009000af
:100b9400808f500005003c009e0090006e00900085
:100ba40000804000100798000800370030408000a3
:100bb4009e009000808f5000040034009e0090003e
:100bc4005e00900000805000100798001e0fe8009f
:100bd4003e0090009e007800808f5000d6ff3500c4
:100be4000080fa00000006000400fa00000f7800fc
:100bf400110798008040eb000040eb0078020700ea
:100c04001e007800b902070011c0b3000040eb00d9
:100c1400730207001e009000b40207000080fa006f
:100c2400000006000200fa0071ff07000000eb005c
:100c3400000f78002003200004010700800020003a
:100c440000408800010037000000000000408000e0
:100c5400104088001e00780000f0a7000000ea00a1
:100c6400000fe9001e0078004f00de00000f78003e
:100c740010408000e10f50000c003a00401f20009b
:100c8400f2000700e144280070452800d6ff070061
:100c940082382100810c20001e0078003a010700f0
:100ca4000146280070452800cfff0700104080004f
:100cb400e20f50000c003a00401f2000e300070040
:100cc400e144280090462800c7ff070002e1200005
:100cd400011920001e0078004a010700014628007f
:100ce40090462800c0ff070010408000e30f50002a
:100cf4000c003a00401f2000d4000700e144280003
:100d040030472800b8ff0700429c20000132200031
:100d14001e0078005a0107000146280030472800c9
:100d2400b1ff070010408000e40f50000c003a00af
:100d3400401f2000c5000700e144280000482800a7
:100d4400a9ff070002642000016420001e0078004f
:100d54006a0107000146280000482800a2ff070096
:100d640010408000e50f50000c003a00401f2000a6
:100d7400b6000700e1442800c04828009aff070095
:100d84000232200001c820001e0078007a0107000a
:100d940001462800c048280093ff07001040800047
:100da400e60f50000c003a00e144280030432800cc
:100db4008dff0700c2122000019021001e00780060
:100dc4008c010700014628003043280086ff0700f5
:100dd400401f20009d00070010408000e70f5000d6
:100de4000e003a00e1442800c04328007eff0700bb
:100df400540020001300200022c0b3000190210001
:100e04001e00780036ff070001462800c043280072
:100e140075ff0700401f20008c0007001040800071
:100e2400e80f500088ff3a00e1442800704528008c
:100e34006dff070082382100810c20001e0078001d
:100e4400d1000700014628007045280066ff07000e
:100e5400401f20007d000700e1442800604928006d
:100e640061ff070002e12000011920001e00780044
:100e7400e400070001462800604928005aff0700e3
:100e8400401f200071000700e1442800f0492800b9
:100e940055ff0700429c2000013220001e0078000c
:100ea400f700070001462800f04928004eff07001c
:100eb400401f200065000700e1442800804a280004
:100ec40049ff070002642000016420001e0078002e
:100ed4000a01070001462800804a280042ff070053
:100ee400401f200059000700e1442800a0422800c8
:100ef4003dff07000232200001c820001e007800d8
:100f04001d01070001462800a042280036ff070003
:100f1400401f20004d000700e14428003043280012
:100f240031ff0700c2122000019021001e0078004a
:100f34003001070001462800304328002aff07003b
:100f4400401f200041000700e1442800c04328005e
:100f540025ff0700540020001300200022c0b30026
:100f6400019021001e007800ddfe070001462800e4
:100f7400c04328001cff0700401f20003300070067
:100f840032ff37000000fa003001200040168800cc
:100f9400c9e2a900c9c2a900c9a2a900c982a900bd
:100fa400c962a900c942a900c922a900c902a900ad
:100fb400c882a8006116800000e02f0001007000c4
:100fc400601688000421ef000021ef00900f20003c
:100fd4001008880021088000f0fc2f0000806000c9
:100fe4000050a000200888008460a9009460a90033
:100ff40005e1a8007134800000fe2f00008060002d
:101004000020a000703488001021ef000621ef00ba
:101014000080eb00600888004221ef0020082000d7
:10102400100a880021058000f0f82f00008060007d
:101034000060a000200588008420a9009420a80056
:1010440011e1a8000080fa00000006000400fa0084
:10105400100798000021ef008460a9000000eb0055
:10106400000f780007003700000000002004800013
:10107400680060000000e000fcff32008460a9000a
:101084001e0fe8001e0090009e007800808f500024
:10109400f5ff35000080fa00000006000200fa00a7
:1010a400000f78000300370003000900000000006f
:1010b400000000001e00780000f0a7000000ea0015
:1010c4000000ea004f00de00004078001e0fe90037
:1010d4000004e000f4ff3a000080fa00000006007b
:1010e4000200fa00004f78001e407800e74f5000dd
:1010f40023003e001e80fb004200de00004078001a
:10110400614060000080fb00610060004d00dd0074
:101114005116800001d0a100010070005016880013
:101124001e80fb000000d100004078006140600098
:1011340061406000614060000080fb00610060006d
:101144004c00dd005116800001c0a10001007000b8
:10115400501688009e40780061c0600061406000c5
:10116400614060000080fb00610060004b00dd0016
:101174005116800001b0a1000100700050168800d3
:101184000080fa00000006000800fa00100798002a
:1011940021079800320798001e0090000040780054
:1011a400614060000080fb004f00dd0051168000ac
:1011b40001f0a10001007000501688000040eb000f
:1011c400c7ff07000000eb00000f7800070037009e
:1011d400cbc2a8003e009000b0ff0700cbc2a9001c
:1011e4003e009000adff07001e0fe8002e009000a7
:1011f4009e007800808f5000f5ff35000080fa00d3
:10120400000006000800fa00100798002107980063
:10121400320798001e009000004078006140600092
:101224000080fb004f00dd005116800001f0a1009a
:10123400010070005016880010c0b300a8ff07001a
:101244000000eb00000f780007003700cbc2a800b5
:101254003e00900091ff0700cbc2a9003e00900021
:101264008eff07001e0fe8002e0090009e007800fd
:10127400808f5000f5ff35000080fa000000060062
:101284000800fa0010079800210798003207980018
:101294001e00900000407800614060000080fb0068
:1012a4004f00dd005116800001f0a1000100700024
:1012b4005016880020c0b30089ff07000000eb002f
:1012c400000f780007003700cbc2a8003e00900052
:1012d40072ff0700cbc2a9003e0090006fff070019
:1012e4001e0fe8002e0090009e007800808f5000b2
:1012f400f5ff35000080fa00000006000800fa003f
:101304001007980021079800320798001e009000eb
:1013140000407800614060000080fb004f00dd0069
:101324005116800001f0a1000100700050168800e1
:1013340030c0b3006aff07000000eb00000f780024
:1013440007003700cbc2a8003e00900053ff0700ff
:10135400cbc2a9003e00900050ff07001e0fe8001a
:101364002e0090009e007800808f5000f5ff35001d
:101374000080fa00000006000800fa001007980038
:1013840021079800320798001e0090000040780062
:10139400614060000080fb004f00dd0051168000ba
:1013a40001f0a100010070005016880040c0b30095
:1013b4004bff07000000eb00000f78000700370028
:1013c400cbc2a8003e00900034ff0700cbc2a900a6
:1013d4003e00900031ff07001e0fe8002e00900031
:1013e4009e007800808f5000f5ff35000080fa00e1
:1013f400000006000800fa00100798002107980072
:10140400320798001e0090000040780061406000a0
:101414000080fb004f00dd005116800001f0a100a8
:10142400010070005016880050c0b3002cff070064
:101434000000eb00000f780007003700cbc2a800c3
:101444003e00900015ff0700cbc2a9003e009000ab
:1014540012ff07001e0fe8002e0090009e00780087
:10146400808f5000f5ff35000080fa000000060070
:101474000000fa0017e2a900d0092000a01088009b
:1014840017e2a8008a40a9002c0007008040eb0066
:101494000040eb00520007000080fa000000060044
:1014a4000200fa00004f78001602a80000000000b5
:1014b400b0108000610060000000e000fcff3a0012
:1014c4008a40a900c0072000901088000000000096
:1014d40050048000640060000000e000fcff320063
:1014e4008a40a9001222ef0000000000500480008e
:1014f400640060000000e000fcff32008a40a900a4
:101504001e80fb0090108800000000005004800042
:10151400640060000000e000fcff32001642a800f6
:1015240000000000b0108000640060000000e000d3
:10153400fcff3a000080fa00000006000000fa00f8
:10154400a00f2000c1fe070080c3b300d4ff070032
:1015540010002000bdfe070090c3b300d0ff0700b9
:1015640010002000b9fe070040c1b300ccff070003
:1015740010002000b5fe070000c7b300c8ff070035
:1015840010002000b1fe070060c5b300c4ff0700cf
:1015940010002000adfe0700c0c6b300c0ff070066
:1015a400200d2000a9fe070080c3b300bcff070084
:1015b40010002000a5fe0700c0c0b300b8ff07005c
:1015c40010002000a1fe070010c0b300b4ff070004
:1015d400400120009dfe07000080fa000000060084
:1015e4000400fa0020479800314798000000eb00ff
:1015f400000f780020c0b300a9ff070010002000ee
:1016040092fe07000500370040c1b300a4ff0700a5
:10161400100020008dfe07001e0fe8002e409000f1
:101624000001fb003e4090008000fb00800220008f
:101634000088b90000007800000041009e0f5000af
:10164400f1ff3c000080fa00000006000200fa00ee
:10165400004f78001602a80000000000b0108000bf
:10166400610060000000e000fcff3a008a40a9002d
:10167400c007200090108800000000005004800083
:10168400640060000000e000fcff32008a40a90012
:101694000004200090108800000000005004800026
:1016a400640060000000e000fcff32008a40a900f2
:1016b4001e00fb0090108800000000005004800011
:1016c400640060000000e000fcff32001642a80045
:1016d40000000000b0108000640060000000e00022
:1016e400fcff3a000080fa00000006000600fa0041
:1016f400200798002e00900035fc07001007980082
:101704001602a80000000000b01080006100600014
:101714000000e000fcff3a008a40a900c007200056
:1017240090108800000000005004800064006000f5
:101734000000e000fcff32008a40a9000000eb003a
:10174400000f780015003700000c2000901088006e
:101754000000000050048000640060000000e0000d
:10176400fcff32008a40a9001e007800ae00900001
:1017740000804000104078000000fb0090108800ba
:101784000000000050048000640060000000e000dd
:10179400fcff32008a40a9001e0fe8001e009000e2
:1017a4000000e9009e0f5000e7ff3c000004200009
:1017b4009010880000000000500480006400600065
:1017c4000000e000fcff32008a40a9001e009000e7
:1017d4000000e900ae009000008040001040780056
:1017e4000000fb00901088000000000050048000fe
:1017f400640060000000e000fcff32008a40a900a1
:101804001642a80000000000b010800064006000d0
:101814000000e000fcff3a000080fa00000006002f
:101824000000fa0080c1b3001dff07000080fa0029
:0418340000000600aa
:020000040000fa
:10183800080800000200000002000000020000008a
:101848000a08000002000000000000000008000074
:1018580008000000020000000100010000d007009d
:08186800aa00000000000000ce
:020000040000fa
:020000040001f9
:0457f8000ff90000a5
:020000040000fa
:020000040001f9
:0457fc007f3f0000eb
:00000001FF
