:020000040000fa
:080000000002040000000000f2
:020000040000fa
:04000800c80200002a
:020000040000fa
:04000c00c802000026
:020000040000fa
:04001000c802000022
:020000040000fa
:04001400c80200001e
:020000040000fa
:04001800c80200001a
:020000040000fa
:04001c00c802000016
:020000040000fa
:04002000c802000012
:020000040000fa
:04002400c80200000e
:020000040000fa
:04002800c80200000a
:020000040000fa
:04002c00c802000006
:020000040000fa
:04003000c802000002
:020000040000fa
:04003400c8020000fe
:020000040000fa
:04003800c8020000fa
:020000040000fa
:04003c00c8020000f6
:020000040000fa
:04004000c8020000f2
:020000040000fa
:04004400c8020000ee
:020000040000fa
:04004800c8020000ea
:020000040000fa
:04004c00c8020000e6
:020000040000fa
:04005000c8020000e2
:020000040000fa
:04005400c8020000de
:020000040000fa
:04005800c8020000da
:020000040000fa
:04005c00c8020000d6
:020000040000fa
:04006000c8020000d2
:020000040000fa
:04006400c8020000ce
:020000040000fa
:04006800c8020000ca
:020000040000fa
:04006c00c8020000c6
:020000040000fa
:04007000c8020000c2
:020000040000fa
:04007400c8020000be
:020000040000fa
:04007800c8020000ba
:020000040000fa
:04007c00c8020000b6
:020000040000fa
:04008000c8020000b2
:020000040000fa
:04008400c8020000ae
:020000040000fa
:04008800c8020000aa
:020000040000fa
:04008c00c8020000a6
:020000040000fa
:04009000c8020000a2
:020000040000fa
:04009400c80200009e
:020000040000fa
:04009800c80200009a
:020000040000fa
:04009c00c802000096
:020000040000fa
:0400a000c802000092
:020000040000fa
:0400a400c80200008e
:020000040000fa
:0400a800c80200008a
:020000040000fa
:0400ac00c802000086
:020000040000fa
:0400b000c802000082
:020000040000fa
:0400b400c80200007e
:020000040000fa
:0400b800c80200007a
:020000040000fa
:0400bc00c802000076
:020000040000fa
:0400c000c802000072
:020000040000fa
:0400c400c80200006e
:020000040000fa
:0400c800c80200006a
:020000040000fa
:0400cc00c802000066
:020000040000fa
:0400d000c802000062
:020000040000fa
:0400d400c80200005e
:020000040000fa
:0400d800c80200005a
:020000040000fa
:0400dc00c802000056
:020000040000fa
:0400e000c802000052
:020000040000fa
:0400e400c80200004e
:020000040000fa
:0400e800c80200004a
:020000040000fa
:0400ec00c802000046
:020000040000fa
:0400f000c802000042
:020000040000fa
:0400f400c80200003e
:020000040000fa
:0400f800c80200003a
:020000040000fa
:0400fc00c802000036
:020000040000fa
:04010000c802000031
:020000040000fa
:04010400c80200002d
:020000040000fa
:04010800c802000029
:020000040000fa
:04010c00c802000025
:020000040000fa
:04011000c802000021
:020000040000fa
:04011400c80200001d
:020000040000fa
:04011800c802000019
:020000040000fa
:04011c00c802000015
:020000040000fa
:04012000c802000011
:020000040000fa
:04012400c80200000d
:020000040000fa
:04012800c802000009
:020000040000fa
:04012c00c802000005
:020000040000fa
:04013000c802000001
:020000040000fa
:04013400c8020000fd
:020000040000fa
:04013800c8020000f9
:020000040000fa
:04013c00c8020000f5
:020000040000fa
:04014000c8020000f1
:020000040000fa
:04014400c8020000ed
:020000040000fa
:04014800c8020000e9
:020000040000fa
:04020800c802000028
:020000040000fa
:04020c00c802000024
:020000040000fa
:04021000c802000020
:020000040000fa
:04021400c80200001c
:020000040000fa
:04021800c802000018
:020000040000fa
:04021c00c802000014
:020000040000fa
:04022000c802000010
:020000040000fa
:04022400c80200000c
:020000040000fa
:04022800c802000008
:020000040000fa
:04022c00c802000004
:020000040000fa
:04023000c802000000
:020000040000fa
:04023400c8020000fc
:020000040000fa
:04023800c8020000f8
:020000040000fa
:04023c00c8020000f4
:020000040000fa
:04024000c8020000f0
:020000040000fa
:04024400c8020000ec
:020000040000fa
:04024800c8020000e8
:020000040000fa
:04024c00c8020000e4
:020000040000fa
:04025000c8020000e0
:020000040000fa
:04025400c8020000dc
:020000040000fa
:04025800c8020000d8
:020000040000fa
:04025c00c8020000d4
:020000040000fa
:04026000c8020000d0
:020000040000fa
:04026400c8020000cc
:020000040000fa
:04026800c8020000c8
:020000040000fa
:04026c00c8020000c4
:020000040000fa
:04027000c8020000c0
:020000040000fa
:04027400c8020000bc
:020000040000fa
:04027800c8020000b8
:020000040000fa
:04027c00c8020000b4
:020000040000fa
:04028000c8020000b0
:020000040000fa
:04028400c8020000ac
:020000040000fa
:04028800c8020000a8
:020000040000fa
:04028c00c8020000a4
:020000040000fa
:04029000c8020000a0
:020000040000fa
:04029400c80200009c
:020000040000fa
:04029800c802000098
:020000040000fa
:04029c00c802000094
:020000040000fa
:0402a000c802000090
:020000040000fa
:0402a400c80200008c
:020000040000fa
:0402a800c802000088
:020000040000fa
:0402ac00c802000084
:020000040000fa
:0402b000c802000080
:020000040000fa
:0402b400c80200007c
:020000040000fa
:0402b800c802000078
:020000040000fa
:0402bc00c802000074
:020000040000fa
:0402c000c802000070
:020000040000fa
:0402c400c80200006c
:020000040000fa
:0402c800c802000068
:020000040000fa
:0402cc00c802000064
:020000040000fa
:0402d000c802000060
:020000040000fa
:0402d400c80200005c
:020000040000fa
:0402d800c802000058
:020000040000fa
:0402dc00c802000054
:020000040000fa
:0402e000c802000050
:020000040000fa
:0402e400c80200004c
:020000040000fa
:0402e800c802000048
:020000040000fa
:0402ec00c802000044
:020000040000fa
:0402f000c802000040
:020000040000fa
:0402f400c80200003c
:020000040000fa
:0402f800c802000038
:020000040000fa
:0402fc00c802000034
:020000040000fa
:04030000c80200002f
:020000040000fa
:04030400c80200002b
:020000040000fa
:04030800c802000027
:020000040000fa
:04030c00c802000023
:020000040000fa
:04031000c80200001f
:020000040000fa
:04031400c80200001b
:020000040000fa
:04031800c802000017
:020000040000fa
:04031c00c802000013
:020000040000fa
:04032000c80200000f
:020000040000fa
:04032400c80200000b
:020000040000fa
:04032800c802000007
:020000040000fa
:04032c00c802000003
:020000040000fa
:04033000c8020000ff
:020000040000fa
:04033400c8020000fb
:020000040000fa
:04033800c8020000f7
:020000040000fa
:04033c00c8020000f3
:020000040000fa
:04034000c8020000ef
:020000040000fa
:04034400c8020000eb
:020000040000fa
:04034800c8020000e7
:020000040000fa
:100400004f8020000e7f22000e01880000000000b7
:10041000000020000000e000020032000001200087
:1004200020028800140007005b0007000000e000c5
:1004300003003a00a08820000100200002003700dd
:100440000000200001002000810f70000100320038
:1004500014000700000020000000e000020032004d
:100460000000020000000000d405020000000000af
:100470000040da000000fe004440a90020052000f2
:100480000000e0000300320000002000a00188000e
:100490004440a800000006008a1f78008b1f7800e7
:1004a0000000060091018800800478000000eb0045
:1004b0001a003700e284440032a0b4009905ba0063
:1004c000e284440032a0b4009906ba00e2844400f9
:1004d00032a0b4000006eb00476fde00fd07b2005b
:1004e000636ce10003003a00ebff07000000eb0043
:1004f0000a003700606ce10004003a00005deb0088
:100500008b05e900fdff3e00040037006168e10053
:10051000010032000086eb000b00070019c7ba008b
:100520001905ba000e04e00003003a000a00e000da
:10053000e0ff3a0000000600fe07b2009e018800be
:100540008a047800f5ff3700395dba008b05e900b1
:100550000c003200295dba008b05e900080032006a
:100560000c00e00003003a00e284440032a0b40032
:10057000f5ff370019ddba008b05e900faff3a00f4
:100580008904e800e184440032a0b40000000600c1
:100590000040da000000fe00000005008000780046
:1005a000010178003104e000fdff3a000000510035
:0405b0000000060041
:020000040000fa
:1005b400525500004e4e0000494e000047200000f6
:1005c40000460000756c00006c5300007465000068
:1005d40070000000464900004e49000053480000e6
:1005e4004544000000480000616c000066530000b0
:1005f400746500007000000034740000682000007e
:100604005374000065700000003800007468000036
:1006140020530000746500007000000031360000b3
:10062400746800005374000065700000003300001b
:10063400326e000064530000746500007000000016
:10064400466e00006379000053740000657000007a
:0406540000000000a2
:020000040000fa
:100658000000fa00213a8000f08f2f00008060002f
:10066800203a8800f0ff2900601988000421ef0073
:100678000021ef00900f200010088800210880005a
:10068800f0fc2f00008060000050a00020088800c7
:100698008460a9009460a90005e1a800300020004a
:1006a800401688000080eb006016880017e2a90059
:1006b800d0092000a010880017e2a8008a40a900ed
:1006c800d40107008040eb000040eb00fa0107006e
:1006d8000080fa00000006000200fa00004f7800cf
:1006e8001e407800e74f500023003e001e80fb00ac
:1006f8004200de0000407800614060000080fb009e
:10070800610060004d00dd005116800001d0a1009d
:1007180001007000501688001e80fb000000d10008
:100728000040780061406000614060006140600006
:100738000080fb00610060004c00dd005116800065
:1007480001c0a10001007000501688009e4078008a
:1007580061c0600061406000614060000080fb0093
:10076800610060004b00dd005116800001b0a1005f
:1007780001007000501688000080fa000000060092
:100788000800fa001007980021079800320798001f
:100798001e00900000407800614060000080fb006f
:1007a8004f00dd005116800001f0a100010070002b
:1007b800501688000040eb00c7ff07000000eb0060
:1007c800000f780007003700cbc2a8003e00900059
:1007d800d3000700cbc2a9003e009000d00007005c
:1007e8001e0fe8002e0090009e007800808f5000b9
:1007f800f5ff35000080fa00000006000600fa0048
:10080800100798002107980010c0b300b2ff070036
:100818000000eb00000f780007003700cbc2a800eb
:100828002e009000be000700cbc2a9002e00900049
:10083800bb0007001e0fe8001e0090009e00780015
:10084800808f5000f5ff35000080fa000000060098
:100858000800fa001007980021079800320798004e
:100868001e00900000407800614060000080fb009e
:100878004f00dd005116800001f0a100010070005a
:100888005016880020c0b30093ff07000000eb005b
:10089800000f780007003700cbc2a8003e00900088
:1008a8009f000700cbc2a9003e0090009c000700f3
:1008b8001e0fe8002e0090009e007800808f5000e8
:1008c800f5ff35000080fa00000006000600fa0077
:1008d800100798002107980030c0b3007eff07007a
:1008e8000000eb00000f780007003700cbc2a8001b
:1008f8002e0090008a000700cbc2a9002e009000ad
:10090800870007001e0fe8001e0090009e00780078
:10091800808f5000f5ff35000080fa0000000600c7
:100928000800fa001007980021079800320798007d
:100938001e00900000407800614060000080fb00cd
:100948004f00dd005116800001f0a1000100700089
:100958005016880040c0b3005fff07000000eb009e
:10096800000f780007003700cbc2a8003e009000b7
:100978006b000700cbc2a9003e009000680007008a
:100988001e0fe8002e0090009e007800808f500017
:10099800f5ff35000080fa00000006000800fa00a4
:1009a8001007980021079800320798001e00900051
:1009b80000407800614060000080fb004f00dd00cf
:1009c8005116800001f0a100010070005016880047
:1009d80050c0b30040ff07000000eb00000f780094
:1009e80007003700cbc2a8003e0090004c0007006b
:1009f800cbc2a9003e009000490007001e0fe80086
:100a08002e0090009e007800808f5000f5ff350082
:100a18000080fa00000006001000fa002007980085
:100a280031079800024f9800530798006407980010
:100a38002e00900000407800614060000080fb00bc
:100a48004f00dd005116800001f0a1000100700088
:100a5800501688000000eb00000f7800014080006d
:100a6800110798000e4890001bff0700260037006a
:100a7800cbc2a8001e00900029000700cbc2a90025
:100a88001e0090000000e900250007003e009000cd
:100a98001e00500070079800024080001e00900061
:100aa800000151006e0090008001780011000900db
:100ab8000301d800fe009000808f500009003c0020
:100ac800004080009e009000808f500005003c0090
:100ad8009e0090006e009000008040001007980073
:100ae80008003700104080009e009000808f500062
:100af800040034009e0090005e00900000805000ca
:100b0800100798001e0fe8003e0090009e00780035
:100b1800808f5000d6ff35000080fa0000000600e4
:100b28000200fa00000f78000300370003000900f4
:100b380000000000000000001e00780000f0a70080
:100b48000000ea000000ea004f00de0000407800e4
:100b58001e0fe9000004e000f4ff3a000080fa00ec
:100b6800000006000400fa00000f78001107980042
:100b78008040eb000040eb00cf0007001e0078002b
:100b88001001070011c0b3000040eb00ca000700c5
:100b98001e0090000b0107000080fa00000006000c
:100ba8000200fa00aafe07000000eb00000f780020
:100bb800200320005c0007001e00780000f0a7005a
:100bc8000000ea00000fe9001e0078004f00de0078
:100bd800000f7800a12d2800302e2800e1ff070023
:100be80082382100810c20001e007800e4fe0700f6
:100bf800c12e2800302e2800daff0700401f2000f1
:100c080049000700a12d2800502f2800d5ff070014
:100c180001e1200000192000f8fe0700c12e28007d
:100c2800502f2800cfff0700401f20003e0007007c
:100c3800a12d2800e02f2800caff0700429c2000b1
:100c4800013220001e00780001ff0700c12e280095
:100c5800e02f2800c3ff0700401f200032000700d4
:100c6800a12d280070302800beff07000164200075
:100c78000064200015ff0700c12e280070302800ee
:100c8800b8ff0700401f200027000700a12d2800fb
:100c980000312800b3ff07000232200001c82000fd
:100ca8001e0078001eff0700c12e28000031280012
:100cb800acff0700401f20001b000700a12d2800e3
:100cc80090312800a7ff0700c212200001902100e0
:100cd8001e00780031ff0700c12e2800903128003f
:100ce800a0ff0700401f20000f000700a12d2800cb
:100cf800203228009bff070054002000130020002a
:100d080022c0b300019021001e00780042ff0700b6
:100d1800c12e28002032280092ff0700401f200023
:100d280001000700a4ff37000400fa00100798002c
:100d38000021ef008460a9000000eb00000f78009c
:100d480007003700000000002004800068006000f1
:100d58000000e000fcff32008460a9001e0fe800dc
:100d68001e0090009e007800808f5000f5ff35002f
:100d78000080fa00000006000200fa00004f780028
:100d88001602a80000000000b0108000610060009a
:100d98000000e000fcff3a008a40a900c0072000dc
:100da800901088000000000050048000640060007b
:100db8000000e000fcff32008a40a9001222ef0088
:100dc8000000000050048000640060000000e000a3
:100dd800fcff32008a40a9001e80fb0090108800aa
:100de8000000000050048000640060000000e00083
:100df800fcff32001642a80000000000b01080007e
:100e0800640060000000e000fcff3a000080fa0087
:100e1800000006000000fa00a00f2000c2ff070033
:100e280080c3b300d4ff070010002000beff0700f6
:100e380090c3b300d0ff070010002000baff0700de
:100e480040c1b300ccff070010002000b6ff070028
:100e580000c7b300c8ff070010002000b2ff07005a
:100e680060c5b300c4ff070010002000aeff0700f4
:100e7800c0c6b300c0ff0700200d2000aaff07006e
:100e880080c3b300bcff070010002000a6ff0700c6
:100e9800c0c0b300b8ff070010002000a2ff070081
:100ea80010c0b300b4ff0700400120009eff0700f8
:100eb8000080fa00000006000400fa0020479800ad
:100ec800314798000000eb00000f780020c0b30005
:100ed800a9ff07001000200093ff07000500370056
:100ee80040c1b300a4ff0700100020008eff0700d8
:100ef8001e0fe8002e4090000001fb003e409000cd
:100f08008000fb00800220000088b9000000780003
:100f1800000041009e0f5000f1ff3c000080fa00e5
:100f2800000006000200fa00004f78001602a80030
:100f380000000000b0108000610060000000e000c8
:100f4800fcff3a008a40a900c007200090108800e2
:100f58000000000050048000640060000000e00011
:100f6800fcff32008a40a90000042000901088008d
:100f78000000000050048000640060000000e000f1
:100f8800fcff32008a40a9001e00fb009010880078
:100f98000000000050048000640060000000e000d1
:100fa800fcff32001642a80000000000b0108000cc
:100fb800640060000000e000fcff3a000080fa00d6
:100fc800000006000600fa00200798002e00900096
:100fd80070fd0700100798001602a8000000000026
:100fe800b0108000610060000000e000fcff3a00e3
:100ff8008a40a900c0072000901088000000000067
:1010080050048000640060000000e000fcff320033
:101018008a40a9000000eb00000f78001500370097
:10102800000c200090108800000000005004800090
:10103800640060000000e000fcff32008a40a90064
:101048001e007800ae00900000804000104078003c
:101058000000fb0090108800000000005004800091
:10106800640060000000e000fcff32008a40a90034
:101078001e0fe8001e0090000000e9009e0f5000bf
:10108800e7ff3c00000420009010880000000000ea
:1010980050048000640060000000e000fcff3200a3
:1010a8008a40a9001e0090000000e900ae009000f0
:1010b80000804000104078000000fb00901088007d
:1010c8000000000050048000640060000000e000a0
:1010d800fcff32008a40a9001642a8000000000068
:1010e800b0108000640060000000e000fcff3a00df
:1010f8000080fa00000006000000fa0080c1b3007a
:0c1108001dff07000080fa000000060038
:020000040000fa
:10111400000800000400000002000000d007aa003c
:081124000000000000000000c3
:020000040000fa
:020000040001f9
:0457f8000ff90000a5
:020000040000fa
:020000040001f9
:0457fc007f3f0000eb
:00000001FF
