:020000040000fa
:080000000002040000000000f2
:020000040000fa
:0400080034030000bd
:020000040000fa
:04000c0034030000b9
:020000040000fa
:0400100034030000b5
:020000040000fa
:0400140034030000b1
:020000040000fa
:0400180034030000ad
:020000040000fa
:04001c0034030000a9
:020000040000fa
:0400200034030000a5
:020000040000fa
:0400240034030000a1
:020000040000fa
:04002800340300009d
:020000040000fa
:04002c00c802000006
:020000040000fa
:040030003403000095
:020000040000fa
:040034003403000091
:020000040000fa
:04003800340300008d
:020000040000fa
:04003c003403000089
:020000040000fa
:040040003403000085
:020000040000fa
:040044003403000081
:020000040000fa
:04004800340300007d
:020000040000fa
:04004c003403000079
:020000040000fa
:040050003403000075
:020000040000fa
:040054003403000071
:020000040000fa
:04005800340300006d
:020000040000fa
:04005c003403000069
:020000040000fa
:040060003403000065
:020000040000fa
:040064003403000061
:020000040000fa
:04006800340300005d
:020000040000fa
:04006c003403000059
:020000040000fa
:040070003403000055
:020000040000fa
:040074003403000051
:020000040000fa
:04007800340300004d
:020000040000fa
:04007c003403000049
:020000040000fa
:040080003403000045
:020000040000fa
:040084003403000041
:020000040000fa
:04008800340300003d
:020000040000fa
:04008c003403000039
:020000040000fa
:040090003403000035
:020000040000fa
:040094003403000031
:020000040000fa
:04009800340300002d
:020000040000fa
:04009c003403000029
:020000040000fa
:0400a0003403000025
:020000040000fa
:0400a4003403000021
:020000040000fa
:0400a800340300001d
:020000040000fa
:0400ac003403000019
:020000040000fa
:0400b0003403000015
:020000040000fa
:0400b4003403000011
:020000040000fa
:0400b800340300000d
:020000040000fa
:0400bc003403000009
:020000040000fa
:0400c0003403000005
:020000040000fa
:0400c4003403000001
:020000040000fa
:0400c80034030000fd
:020000040000fa
:0400cc0034030000f9
:020000040000fa
:0400d00034030000f5
:020000040000fa
:0400d40034030000f1
:020000040000fa
:0400d80034030000ed
:020000040000fa
:0400dc0034030000e9
:020000040000fa
:0400e00034030000e5
:020000040000fa
:0400e40034030000e1
:020000040000fa
:0400e80034030000dd
:020000040000fa
:0400ec0034030000d9
:020000040000fa
:0400f00034030000d5
:020000040000fa
:0400f40034030000d1
:020000040000fa
:0400f80034030000cd
:020000040000fa
:0400fc0034030000c9
:020000040000fa
:0401000034030000c4
:020000040000fa
:0401040034030000c0
:020000040000fa
:0401080034030000bc
:020000040000fa
:04010c0034030000b8
:020000040000fa
:0401100034030000b4
:020000040000fa
:0401140034030000b0
:020000040000fa
:0401180034030000ac
:020000040000fa
:04011c0034030000a8
:020000040000fa
:0401200034030000a4
:020000040000fa
:0401240034030000a0
:020000040000fa
:04012800340300009c
:020000040000fa
:04012c003403000098
:020000040000fa
:040130003403000094
:020000040000fa
:040134003403000090
:020000040000fa
:04013800340300008c
:020000040000fa
:04013c003403000088
:020000040000fa
:040140003403000084
:020000040000fa
:040144003403000080
:020000040000fa
:04014800340300007c
:020000040000fa
:0402080034030000bb
:020000040000fa
:04020c0034030000b7
:020000040000fa
:0402100034030000b3
:020000040000fa
:0402140034030000af
:020000040000fa
:0402180034030000ab
:020000040000fa
:04021c0034030000a7
:020000040000fa
:0402200034030000a3
:020000040000fa
:04022400340300009f
:020000040000fa
:04022800340300009b
:020000040000fa
:04022c00c802000004
:020000040000fa
:040230003403000093
:020000040000fa
:04023400340300008f
:020000040000fa
:04023800340300008b
:020000040000fa
:04023c003403000087
:020000040000fa
:040240003403000083
:020000040000fa
:04024400340300007f
:020000040000fa
:04024800340300007b
:020000040000fa
:04024c003403000077
:020000040000fa
:040250003403000073
:020000040000fa
:04025400340300006f
:020000040000fa
:04025800340300006b
:020000040000fa
:04025c003403000067
:020000040000fa
:040260003403000063
:020000040000fa
:04026400340300005f
:020000040000fa
:04026800340300005b
:020000040000fa
:04026c003403000057
:020000040000fa
:040270003403000053
:020000040000fa
:04027400340300004f
:020000040000fa
:04027800340300004b
:020000040000fa
:04027c003403000047
:020000040000fa
:040280003403000043
:020000040000fa
:04028400340300003f
:020000040000fa
:04028800340300003b
:020000040000fa
:04028c003403000037
:020000040000fa
:040290003403000033
:020000040000fa
:04029400340300002f
:020000040000fa
:04029800340300002b
:020000040000fa
:04029c003403000027
:020000040000fa
:0402a0003403000023
:020000040000fa
:0402a400340300001f
:020000040000fa
:0402a800340300001b
:020000040000fa
:0402ac003403000017
:020000040000fa
:0402b0003403000013
:020000040000fa
:0402b400340300000f
:020000040000fa
:0402b800340300000b
:020000040000fa
:0402bc003403000007
:020000040000fa
:0402c0003403000003
:020000040000fa
:0402c40034030000ff
:020000040000fa
:0402c80034030000fb
:020000040000fa
:0402cc0034030000f7
:020000040000fa
:0402d00034030000f3
:020000040000fa
:0402d40034030000ef
:020000040000fa
:0402d80034030000eb
:020000040000fa
:0402dc0034030000e7
:020000040000fa
:0402e00034030000e3
:020000040000fa
:0402e40034030000df
:020000040000fa
:0402e80034030000db
:020000040000fa
:0402ec0034030000d7
:020000040000fa
:0402f00034030000d3
:020000040000fa
:0402f40034030000cf
:020000040000fa
:0402f80034030000cb
:020000040000fa
:0402fc0034030000c7
:020000040000fa
:0403000034030000c2
:020000040000fa
:0403040034030000be
:020000040000fa
:0403080034030000ba
:020000040000fa
:04030c0034030000b6
:020000040000fa
:0403100034030000b2
:020000040000fa
:0403140034030000ae
:020000040000fa
:0403180034030000aa
:020000040000fa
:04031c0034030000a6
:020000040000fa
:0403200034030000a2
:020000040000fa
:04032400340300009e
:020000040000fa
:04032800340300009a
:020000040000fa
:04032c003403000096
:020000040000fa
:040330003403000092
:020000040000fa
:04033400340300008e
:020000040000fa
:04033800340300008a
:020000040000fa
:04033c003403000086
:020000040000fa
:040340003403000082
:020000040000fa
:04034400340300007e
:020000040000fa
:04034800340300007a
:020000040000fa
:100400008f8020000e7f22000e0188000000000077
:10041000000020000000e000020032000001200087
:100420002002880014000700910007000000e0008f
:1004300003003a006096200001002000020037000f
:100440000000200001002000810f70000100320038
:1004500014000700000020000000e000020032004d
:100460000000020000000000b006020000000000d2
:100470000040da000000fe004440a900a00920006e
:100480000000e0000300320000002000a00188000e
:100490004440a800000006008a1f78008b1f7800e7
:1004a0000000060091018800800478000000eb0045
:1004b0001a003700e284440032a0b4009905ba0063
:1004c000e284440032a0b4009906ba00e2844400f9
:1004d00032a0b4000006eb00476fde00fd07b2005b
:1004e000636ce10003003a00ebff07000000eb0043
:1004f0000a003700606ce10004003a00005deb0088
:100500008b05e900fdff3e00040037006168e10053
:10051000010032000086eb000b00070019c7ba008b
:100520001905ba000e04e00003003a000a00e000da
:10053000e0ff3a0000000600fe07b2009e018800be
:100540008a047800f5ff3700395dba008b05e900b1
:100550000c003200295dba008b05e900080032006a
:100560000c00e00003003a00e284440032a0b40032
:10057000f5ff370019ddba008b05e900faff3a00f4
:100580008904e800e184440032a0b40000000600c1
:100590003600f800809fbe00829fbe00849fbe0090
:1005a000869fbe003400f80000002000a0018800f3
:1005b0000000fa00304080000000e8003040880071
:1005c0003140800000408000808f50000f003500d7
:1005d000cb22a900cb02a800200320004202070082
:1005e00071392800f0392800ce010700007d200075
:1005f0003d020700813a2800103b2800c90107008e
:10060000007d200038020700f3ff3700400620007d
:1006100035020700a13b2800403c2800c10107002b
:10062000cb22a900803821002f020700d13c2800ee
:10063000603d2800bb010700cb22a80080bb200042
:10064000290207008420a9000080fa003400f90084
:100650004f03be004f02be004f01be004f00be0060
:100660003600f900004006000040da000000fe00fd
:100670000000050080007800010178003104e000ee
:0c068000fdff3a000000510000000600e1
:020000040000fa
:10068c00525500004e4e0000494e0000472000001d
:10069c0000460000756c00006c530000746500008f
:1006ac0070000000464900004e490000534800000d
:1006bc004544000000480000616c000066530000d7
:1006cc0074650000700000003474000068200000a5
:1006dc00537400006570000000380000746800005e
:1006ec0020530000746500007000000031360000db
:1006fc007468000053740000657000000033000043
:10070c00326e00006453000074650000700000003d
:10071c00466e0000637900005374000065700000a1
:10072c000052000065610000636800006564000011
:10073c00004d00006178000046610000756c0000ff
:10074c007400000057690000726900006e670000b9
:10075c00202000000043000068650000636b00006f
:10076c0020200000200000004445000054450000fb
:10077c0043540000454400002000000046410000a6
:10078c00554c0000542000002020000000440000c4
:10079c0052560000383800003235000020000000ae
:1007ac005265000073650000746900006e670000fc
:0407bc000000000039
:020000040000fa
:1007c0000000fa00213a8000f08f2f0000806000c6
:1007d000203a8800f0ff2900601988000421ef000a
:1007e0000021ef00900f20001008880021088000f1
:1007f000f0fc2f00008060000050a000200888005e
:100800008460a9009460a90005e1a80030012000df
:1008100040168800f0ef2f006016880017e2a9004c
:10082000d0092000a010880017e2a8008a40a90083
:10083000e80107008040eb000040eb000e020700db
:100840007134800000fe2f00008060000020a000b6
:10085000703488001021ef000621ef000080eb00cb
:10086000600888004221ef0020082000100a88005c
:1008700021058000f0f82f00008060000060a000db
:10088000200588008420a9009420a80011e1a80078
:100890000080fa00000006000200fa00004f780015
:1008a0001e407800e74f500023003e001e80fb00f2
:1008b0004200de0000407800614060000080fb00e4
:1008c000610060004d00dd005116800001d0a100e4
:1008d00001007000501688001e80fb000000d1004f
:1008e000004078006140600061406000614060004d
:1008f0000080fb00610060004c00dd0051168000ac
:1009000001c0a10001007000501688009e407800d0
:1009100061c0600061406000614060000080fb00d9
:10092000610060004b00dd005116800001b0a100a5
:1009300001007000501688000080fa0000000600d8
:100940000800fa0010079800210798003207980065
:100950001e00900000407800614060000080fb00b5
:100960004f00dd005116800001f0a1000100700071
:10097000501688000040eb00c7ff07000000eb00a6
:10098000000f780007003700cbc2a8003e0090009f
:10099000d3000700cbc2a9003e009000d0000700a2
:1009a0001e0fe8002e0090009e007800808f5000ff
:1009b000f5ff35000080fa00000006000600fa008e
:1009c000100798002107980010c0b300b2ff07007d
:1009d0000000eb00000f780007003700cbc2a80032
:1009e0002e009000be000700cbc2a9002e00900090
:1009f000bb0007001e0fe8001e0090009e0078005c
:100a0000808f5000f5ff35000080fa0000000600de
:100a10000800fa0010079800210798003207980094
:100a20001e00900000407800614060000080fb00e4
:100a30004f00dd005116800001f0a10001007000a0
:100a40005016880020c0b30093ff07000000eb00a1
:100a5000000f780007003700cbc2a8003e009000ce
:100a60009f000700cbc2a9003e0090009c00070039
:100a70001e0fe8002e0090009e007800808f50002e
:100a8000f5ff35000080fa00000006000600fa00bd
:100a9000100798002107980030c0b3007eff0700c0
:100aa0000000eb00000f780007003700cbc2a80061
:100ab0002e0090008a000700cbc2a9002e009000f3
:100ac000870007001e0fe8001e0090009e007800bf
:100ad000808f5000f5ff35000080fa00000006000e
:100ae0000800fa00100798002107980032079800c4
:100af0001e00900000407800614060000080fb0014
:100b00004f00dd005116800001f0a10001007000cf
:100b10005016880040c0b3005fff07000000eb00e4
:100b2000000f780007003700cbc2a8003e009000fd
:100b30006b000700cbc2a9003e00900068000700d0
:100b40001e0fe8002e0090009e007800808f50005d
:100b5000f5ff35000080fa00000006000800fa00ea
:100b60001007980021079800320798001e00900097
:100b700000407800614060000080fb004f00dd0015
:100b80005116800001f0a10001007000501688008d
:100b900050c0b30040ff07000000eb00000f7800da
:100ba00007003700cbc2a8003e0090004c000700b1
:100bb000cbc2a9003e009000490007001e0fe800cc
:100bc0002e0090009e007800808f5000f5ff3500c9
:100bd0000080fa00000006001000fa0020079800cc
:100be00031079800024f9800530798006407980057
:100bf0002e00900000407800614060000080fb0003
:100c00004f00dd005116800001f0a10001007000ce
:100c1000501688000000eb00000f780011408000a3
:100c2000110798000e4890001bff070026003700b0
:100c3000cbc2a8001e00900029000700cbc2a9006b
:100c40001e0090000000e900250007003e00900013
:100c50001e00500070079800124080001e00900097
:100c6000000151006e009000800178001100090021
:100c70000301d800fe009000808f500009003c0066
:100c8000104080009e009000808f500005003c00c6
:100c90009e0090006e0090000080400010079800b9
:100ca00008003700204080009e009000808f500098
:100cb000040034009e0090005e0090000080500010
:100cc000100798001e0fe8003e0090009e0078007c
:100cd000808f5000d6ff35000080fa00000006002b
:100ce0000200fa00000f780003003700030009003b
:100cf00000000000000000001e00780000f0a700c7
:100d00000000ea000000ea004f00de00004078002a
:100d10001e0fe9000004e000f4ff3a000080fa0032
:100d2000000006000400fa00000f78001107980088
:100d30008040eb000040eb00cf0007001e00780071
:100d40001001070011c0b3000040eb00ca0007000b
:100d50001e0090000b0107000080fa000000060052
:100d60000200fa0096fe07000000eb00000f78007a
:100d7000200320005c0007001e00780000f0a700a0
:100d80000000ea00000fe9001e0078004f00de00be
:100d9000000f780061342800f0342800e1ff0700dc
:100da00082382100810c20001e007800e4fe07003c
:100db00081352800f0342800daff0700401f2000aa
:100dc000490007006134280010362800d5ff0700cd
:100dd00001e1200000192000f8fe070081352800fd
:100de00010362800cfff0700401f20003e000700fc
:100df00061342800a0362800caff0700429c20006a
:100e0000013220001e00780001ff07008135280014
:100e1000a0362800c3ff0700401f20003200070053
:100e20006134280030372800beff0700016420002d
:100e30000064200015ff07008135280030372800a6
:100e4000b8ff0700401f200027000700613428007a
:100e5000c0372800b3ff07000232200001c820007d
:100e60001e0078001eff070081352800c0372800cb
:100e7000acff0700401f20001b0007006134280062
:100e800050382800a7ff0700c2122000019021005f
:100e90001e00780031ff07008135280050382800f7
:100ea000a0ff0700401f20000f000700613428004a
:100eb000e03828009bff07005400200013002000aa
:100ec00022c0b300019021001e00780042ff0700fd
:100ed00081352800e038280092ff0700401f2000dd
:100ee00001000700a4ff37000400fa001007980073
:100ef0000021ef008460a9000000eb00000f7800e3
:100f00000700370000000000200480006800600037
:100f10000000e000fcff32008460a9001e0fe80022
:100f20001e0090009e007800808f5000f5ff350075
:100f30000080fa00000006000200fa00004f78006e
:100f40001602a80000000000b010800061006000e0
:100f50000000e000fcff3a008a40a900c007200022
:100f600090108800000000005004800064006000c1
:100f70000000e000fcff32008a40a9001222ef00ce
:100f80000000000050048000640060000000e000e9
:100f9000fcff32008a40a9001e80fb0090108800f0
:100fa0000000000050048000640060000000e000c9
:100fb000fcff32001642a80000000000b0108000c4
:100fc000640060000000e000fcff3a000080fa00ce
:100fd000000006000000fa00a00f2000c2ff07007a
:100fe00080c3b300d4ff070010002000beff07003d
:100ff00090c3b300d0ff070010002000baff070025
:1010000040c1b300ccff070010002000b6ff07006e
:1010100000c7b300c8ff070010002000b2ff0700a0
:1010200060c5b300c4ff070010002000aeff07003a
:10103000c0c6b300c0ff0700200d2000aaff0700b4
:1010400080c3b300bcff070010002000a6ff07000c
:10105000c0c0b300b8ff070010002000a2ff0700c7
:1010600010c0b300b4ff0700400120009eff07003e
:101070000080fa00000006000400fa0020479800f3
:10108000314798000000eb00000f780020c0b3004b
:10109000a9ff07001000200093ff0700050037009c
:1010a00040c1b300a4ff0700100020008eff07001e
:1010b0001e0fe8002e4090000001fb003e40900013
:1010c0008000fb00800220000088b900000078004a
:1010d000000041009e0f5000f1ff3c000080fa002c
:1010e000000006000200fa00004f78001602a80077
:1010f00000000000b0108000610060000000e0000f
:10110000fcff3a008a40a900c00720009010880028
:101110000000000050048000640060000000e00057
:10112000fcff32008a40a9000004200090108800d3
:101130000000000050048000640060000000e00037
:10114000fcff32008a40a9001e00fb0090108800be
:101150000000000050048000640060000000e00017
:10116000fcff32001642a80000000000b010800012
:10117000640060000000e000fcff3a000080fa001c
:10118000000006000600fa00200798002e009000dc
:1011900038fd0700100798001602a80000000000a4
:1011a000b0108000610060000000e000fcff3a0029
:1011b0008a40a900c00720009010880000000000ad
:1011c00050048000640060000000e000fcff32007a
:1011d0008a40a9000000eb00000f780015003700de
:1011e000000c2000901088000000000050048000d7
:1011f000640060000000e000fcff32008a40a900ab
:101200001e007800ae009000008040001040780082
:101210000000fb00901088000000000050048000d7
:10122000640060000000e000fcff32008a40a9007a
:101230001e0fe8001e0090000000e9009e0f500005
:10124000e7ff3c0000042000901088000000000030
:1012500050048000640060000000e000fcff3200e9
:101260008a40a9001e0090000000e900ae00900036
:1012700000804000104078000000fb0090108800c3
:101280000000000050048000640060000000e000e6
:10129000fcff32008a40a9001642a80000000000ae
:1012a000b0108000640060000000e000fcff3a0025
:1012b0000080fa00000006000000fa0080c1b300c0
:0c12c0001dff07000080fa00000006007f
:020000040000fa
:1012cc000008000006000000020000000200d00030
:1012dc0007aa000006080000020000000000000041
:0412ec0000000000fe
:020000040000fa
:020000040001f9
:0457f8000ff90000a5
:020000040000fa
:020000040001f9
:0457fc007f3f0000eb
:00000001FF
